{
  "_format": "hh-sol-artifact-1",
  "contractName": "Rocket",
  "sourceName": "contracts/Rocket.sol",
  "abi": [
    {
      "anonymous": false,
      "inputs": [
        {
          "indexed": false,
          "internalType": "bytes32",
          "name": "poolId",
          "type": "bytes32"
        },
        {
          "indexed": false,
          "internalType": "uint256",
          "name": "poolTargetAmount",
          "type": "uint256"
        },
        {
          "indexed": false,
          "internalType": "address",
          "name": "receiver",
          "type": "address"
        }
      ],
      "name": "CreatedPool",
      "type": "event"
    },
    {
      "anonymous": false,
      "inputs": [
        {
          "indexed": true,
          "internalType": "bytes32",
          "name": "role",
          "type": "bytes32"
        },
        {
          "indexed": true,
          "internalType": "bytes32",
          "name": "previousAdminRole",
          "type": "bytes32"
        },
        {
          "indexed": true,
          "internalType": "bytes32",
          "name": "newAdminRole",
          "type": "bytes32"
        }
      ],
      "name": "RoleAdminChanged",
      "type": "event"
    },
    {
      "anonymous": false,
      "inputs": [
        {
          "indexed": true,
          "internalType": "bytes32",
          "name": "role",
          "type": "bytes32"
        },
        {
          "indexed": true,
          "internalType": "address",
          "name": "account",
          "type": "address"
        },
        {
          "indexed": true,
          "internalType": "address",
          "name": "sender",
          "type": "address"
        }
      ],
      "name": "RoleGranted",
      "type": "event"
    },
    {
      "anonymous": false,
      "inputs": [
        {
          "indexed": true,
          "internalType": "bytes32",
          "name": "role",
          "type": "bytes32"
        },
        {
          "indexed": true,
          "internalType": "address",
          "name": "account",
          "type": "address"
        },
        {
          "indexed": true,
          "internalType": "address",
          "name": "sender",
          "type": "address"
        }
      ],
      "name": "RoleRevoked",
      "type": "event"
    },
    {
      "anonymous": false,
      "inputs": [
        {
          "indexed": false,
          "internalType": "bytes32",
          "name": "poolId",
          "type": "bytes32"
        },
        {
          "indexed": false,
          "internalType": "address",
          "name": "contributor",
          "type": "address"
        },
        {
          "indexed": false,
          "internalType": "uint256",
          "name": "amount",
          "type": "uint256"
        },
        {
          "indexed": false,
          "internalType": "uint256",
          "name": "contributionId",
          "type": "uint256"
        }
      ],
      "name": "contributed",
      "type": "event"
    },
    {
      "inputs": [],
      "name": "DEFAULT_ADMIN_ROLE",
      "outputs": [
        {
          "internalType": "bytes32",
          "name": "",
          "type": "bytes32"
        }
      ],
      "stateMutability": "view",
      "type": "function"
    },
    {
      "inputs": [],
      "name": "Rocket_Admin_ROLE",
      "outputs": [
        {
          "internalType": "bytes32",
          "name": "",
          "type": "bytes32"
        }
      ],
      "stateMutability": "view",
      "type": "function"
    },
    {
      "inputs": [
        {
          "internalType": "bytes32",
          "name": "",
          "type": "bytes32"
        }
      ],
      "name": "claimCalendars",
      "outputs": [
        {
          "internalType": "uint256",
          "name": "firstInterval",
          "type": "uint256"
        },
        {
          "internalType": "uint256",
          "name": "nextInterval",
          "type": "uint256"
        },
        {
          "internalType": "uint256",
          "name": "finalInterval",
          "type": "uint256"
        },
        {
          "internalType": "uint256",
          "name": "depoistBatch",
          "type": "uint256"
        },
        {
          "internalType": "uint256",
          "name": "claimRate",
          "type": "uint256"
        },
        {
          "internalType": "uint256",
          "name": "duration",
          "type": "uint256"
        }
      ],
      "stateMutability": "view",
      "type": "function"
    },
    {
      "inputs": [
        {
          "internalType": "bytes32",
          "name": "poolId",
          "type": "bytes32"
        },
        {
          "internalType": "uint256",
          "name": "contributionId",
          "type": "uint256"
        }
      ],
      "name": "claimToken",
      "outputs": [
        {
          "internalType": "bool",
          "name": "",
          "type": "bool"
        }
      ],
      "stateMutability": "nonpayable",
      "type": "function"
    },
    {
      "inputs": [
        {
          "internalType": "bytes32",
          "name": "poolId",
          "type": "bytes32"
        },
        {
          "internalType": "bytes32",
          "name": "_scheduleId",
          "type": "bytes32"
        },
        {
          "internalType": "uint256",
          "name": "amount",
          "type": "uint256"
        },
        {
          "internalType": "address",
          "name": "_token",
          "type": "address"
        }
      ],
      "name": "contribute",
      "outputs": [
        {
          "internalType": "uint256",
          "name": "",
          "type": "uint256"
        }
      ],
      "stateMutability": "nonpayable",
      "type": "function"
    },
    {
      "inputs": [
        {
          "internalType": "uint256",
          "name": "",
          "type": "uint256"
        }
      ],
      "name": "contributions",
      "outputs": [
        {
          "internalType": "bytes32",
          "name": "poolId",
          "type": "bytes32"
        },
        {
          "internalType": "address",
          "name": "contributor",
          "type": "address"
        },
        {
          "internalType": "uint256",
          "name": "amountToReceive",
          "type": "uint256"
        },
        {
          "internalType": "uint256",
          "name": "amountContributed",
          "type": "uint256"
        },
        {
          "internalType": "uint256",
          "name": "lastWithdrawal",
          "type": "uint256"
        },
        {
          "internalType": "uint256",
          "name": "nextWithdrawal",
          "type": "uint256"
        },
        {
          "internalType": "uint256",
          "name": "totalWithdrwan",
          "type": "uint256"
        },
        {
          "internalType": "uint256",
          "name": "withdrawalBatch",
          "type": "uint256"
        }
      ],
      "stateMutability": "view",
      "type": "function"
    },
    {
      "inputs": [
        {
          "internalType": "bytes32",
          "name": "poolId",
          "type": "bytes32"
        },
        {
          "internalType": "uint256",
          "name": "tierId",
          "type": "uint256"
        },
        {
          "internalType": "uint256",
          "name": "_minContributionAmount",
          "type": "uint256"
        },
        {
          "internalType": "uint256",
          "name": "_maxContributionAmount",
          "type": "uint256"
        },
        {
          "internalType": "uint256",
          "name": "_contributionFee",
          "type": "uint256"
        },
        {
          "internalType": "uint256",
          "name": "_contributionOpenDate",
          "type": "uint256"
        },
        {
          "internalType": "uint256",
          "name": "_contributionCloseDate",
          "type": "uint256"
        }
      ],
      "name": "createContributionSchedule",
      "outputs": [
        {
          "internalType": "bytes32",
          "name": "scheduleId",
          "type": "bytes32"
        }
      ],
      "stateMutability": "nonpayable",
      "type": "function"
    },
    {
      "inputs": [
        {
          "components": [
            {
              "internalType": "uint256",
              "name": "_targetAmount",
              "type": "uint256"
            },
            {
              "internalType": "address[]",
              "name": "_tokens",
              "type": "address[]"
            },
            {
              "internalType": "uint256",
              "name": "expiry",
              "type": "uint256"
            },
            {
              "internalType": "address",
              "name": "_receiver",
              "type": "address"
            },
            {
              "internalType": "uint256",
              "name": "_price",
              "type": "uint256"
            },
            {
              "internalType": "address",
              "name": "_poolRewardAddress",
              "type": "address"
            },
            {
              "internalType": "uint256",
              "name": "_tokenClaimAmount",
              "type": "uint256"
            },
            {
              "internalType": "uint256",
              "name": "_claimDuration",
              "type": "uint256"
            },
            {
              "internalType": "uint256",
              "name": "_firstInterval",
              "type": "uint256"
            },
            {
              "internalType": "uint256",
              "name": "_nextInterval",
              "type": "uint256"
            },
            {
              "internalType": "uint256",
              "name": "_finalInterval",
              "type": "uint256"
            },
            {
              "internalType": "uint256",
              "name": "_claimRate",
              "type": "uint256"
            }
          ],
          "internalType": "struct RocketModel.CreatePoolDTO",
          "name": "params",
          "type": "tuple"
        }
      ],
      "name": "createPool",
      "outputs": [
        {
          "internalType": "bytes32",
          "name": "pool",
          "type": "bytes32"
        }
      ],
      "stateMutability": "nonpayable",
      "type": "function"
    },
    {
      "inputs": [
        {
          "internalType": "bytes32",
          "name": "poolId",
          "type": "bytes32"
        }
      ],
      "name": "deposit",
      "outputs": [
        {
          "internalType": "bool",
          "name": "",
          "type": "bool"
        }
      ],
      "stateMutability": "nonpayable",
      "type": "function"
    },
    {
      "inputs": [
        {
          "internalType": "bytes32",
          "name": "role",
          "type": "bytes32"
        }
      ],
      "name": "getRoleAdmin",
      "outputs": [
        {
          "internalType": "bytes32",
          "name": "",
          "type": "bytes32"
        }
      ],
      "stateMutability": "view",
      "type": "function"
    },
    {
      "inputs": [
        {
          "internalType": "bytes32",
          "name": "role",
          "type": "bytes32"
        },
        {
          "internalType": "address",
          "name": "account",
          "type": "address"
        }
      ],
      "name": "grantRole",
      "outputs": [],
      "stateMutability": "nonpayable",
      "type": "function"
    },
    {
      "inputs": [
        {
          "internalType": "bytes32",
          "name": "role",
          "type": "bytes32"
        },
        {
          "internalType": "address",
          "name": "account",
          "type": "address"
        }
      ],
      "name": "hasRole",
      "outputs": [
        {
          "internalType": "bool",
          "name": "",
          "type": "bool"
        }
      ],
      "stateMutability": "view",
      "type": "function"
    },
    {
      "inputs": [
        {
          "internalType": "address",
          "name": "_permissionAddress",
          "type": "address"
        },
        {
          "internalType": "address",
          "name": "_contractAdmin",
          "type": "address"
        },
        {
          "internalType": "address",
          "name": "_rocketAdmin",
          "type": "address"
        },
        {
          "internalType": "address",
          "name": "_feeAddress",
          "type": "address"
        }
      ],
      "name": "initialize",
      "outputs": [],
      "stateMutability": "nonpayable",
      "type": "function"
    },
    {
      "inputs": [
        {
          "internalType": "address",
          "name": "",
          "type": "address"
        },
        {
          "internalType": "uint256",
          "name": "",
          "type": "uint256"
        }
      ],
      "name": "myContributions",
      "outputs": [
        {
          "internalType": "bytes32",
          "name": "poolId",
          "type": "bytes32"
        },
        {
          "internalType": "address",
          "name": "contributor",
          "type": "address"
        },
        {
          "internalType": "uint256",
          "name": "amountToReceive",
          "type": "uint256"
        },
        {
          "internalType": "uint256",
          "name": "amountContributed",
          "type": "uint256"
        },
        {
          "internalType": "uint256",
          "name": "lastWithdrawal",
          "type": "uint256"
        },
        {
          "internalType": "uint256",
          "name": "nextWithdrawal",
          "type": "uint256"
        },
        {
          "internalType": "uint256",
          "name": "totalWithdrwan",
          "type": "uint256"
        },
        {
          "internalType": "uint256",
          "name": "withdrawalBatch",
          "type": "uint256"
        }
      ],
      "stateMutability": "view",
      "type": "function"
    },
    {
      "inputs": [
        {
          "internalType": "bytes32",
          "name": "",
          "type": "bytes32"
        }
      ],
      "name": "pools",
      "outputs": [
        {
          "internalType": "uint256",
          "name": "tokenClaimAmount",
          "type": "uint256"
        },
        {
          "internalType": "uint256",
          "name": "totalClaimToken",
          "type": "uint256"
        },
        {
          "internalType": "uint256",
          "name": "targetAmount",
          "type": "uint256"
        },
        {
          "internalType": "uint256",
          "name": "expiryTime",
          "type": "uint256"
        },
        {
          "internalType": "uint256",
          "name": "amountContributed",
          "type": "uint256"
        },
        {
          "internalType": "address",
          "name": "poolRewardAddress",
          "type": "address"
        },
        {
          "internalType": "uint256",
          "name": "price",
          "type": "uint256"
        },
        {
          "internalType": "bool",
          "name": "isComplete",
          "type": "bool"
        },
        {
          "internalType": "bool",
          "name": "canClaimToken",
          "type": "bool"
        },
        {
          "internalType": "address",
          "name": "receiver",
          "type": "address"
        },
        {
          "internalType": "bytes32",
          "name": "poolAddress",
          "type": "bytes32"
        }
      ],
      "stateMutability": "view",
      "type": "function"
    },
    {
      "inputs": [
        {
          "internalType": "bytes32",
          "name": "role",
          "type": "bytes32"
        },
        {
          "internalType": "address",
          "name": "account",
          "type": "address"
        }
      ],
      "name": "renounceRole",
      "outputs": [],
      "stateMutability": "nonpayable",
      "type": "function"
    },
    {
      "inputs": [
        {
          "internalType": "bytes32",
          "name": "role",
          "type": "bytes32"
        },
        {
          "internalType": "address",
          "name": "account",
          "type": "address"
        }
      ],
      "name": "revokeRole",
      "outputs": [],
      "stateMutability": "nonpayable",
      "type": "function"
    },
    {
      "inputs": [
        {
          "internalType": "address",
          "name": "_rocketAdmin",
          "type": "address"
        }
      ],
      "name": "setRocketAdmin",
      "outputs": [],
      "stateMutability": "nonpayable",
      "type": "function"
    },
    {
      "inputs": [
        {
          "internalType": "bytes4",
          "name": "interfaceId",
          "type": "bytes4"
        }
      ],
      "name": "supportsInterface",
      "outputs": [
        {
          "internalType": "bool",
          "name": "",
          "type": "bool"
        }
      ],
      "stateMutability": "view",
      "type": "function"
    },
    {
      "inputs": [
        {
          "internalType": "bytes32",
          "name": "poolId",
          "type": "bytes32"
        }
      ],
      "name": "withdrawFunds",
      "outputs": [],
      "stateMutability": "nonpayable",
      "type": "function"
    }
  ],
  "bytecode": "0x608060405234801561001057600080fd5b50613ecf806100206000396000f3fe608060405234801561001057600080fd5b506004361061012c5760003560e01c806391d14854116100ad578063b5217bb411610071578063b5217bb4146103a0578063d547741f146103da578063f565b94d146103f6578063f8c8765e14610426578063fbf08fa2146104425761012c565b806391d14854146102cd5780639c30aefa146102fd578063a217fddf14610334578063aa62810814610352578063b214faa5146103705761012c565b80632f2ff15d116100f45780632f2ff15d1461021457806336568abe1461023057806367f3c9311461024c5780636e2b54ee1461027c578063853f074a146102985761012c565b806301ffc9a714610131578063026f0d7f146101615780630cbef636146101915780631cee0700146101ad578063248a9ca3146101e4575b600080fd5b61014b60048036038101906101469190612db3565b610472565b604051610158919061322c565b60405180910390f35b61017b60048036038101906101769190612cd9565b6104ec565b604051610188919061322c565b60405180910390f35b6101ab60048036038101906101a69190612b20565b6108b3565b005b6101c760048036038101906101c29190612e1d565b6108e0565b6040516101db9897969594939291906132a7565b60405180910390f35b6101fe60048036038101906101f99190612c11565b610948565b60405161020b9190613247565b60405180910390f35b61022e60048036038101906102299190612c3a565b610968565b005b61024a60048036038101906102459190612c3a565b610991565b005b61026660048036038101906102619190612c76565b610a14565b604051610273919061353e565b60405180910390f35b61029660048036038101906102919190612c11565b610f89565b005b6102b260048036038101906102ad9190612c11565b611249565b6040516102c496959493929190613604565b60405180910390f35b6102e760048036038101906102e29190612c3a565b611285565b6040516102f4919061322c565b60405180910390f35b61031760048036038101906103129190612bac565b6112f0565b60405161032b9897969594939291906132a7565b60405180910390f35b61033c611375565b6040516103499190613247565b60405180910390f35b61035a61137c565b6040516103679190613247565b60405180910390f35b61038a60048036038101906103859190612c11565b6113a0565b604051610397919061322c565b60405180910390f35b6103ba60048036038101906103b59190612c11565b611532565b6040516103d19b9a99989796959493929190613559565b60405180910390f35b6103f460048036038101906103ef9190612c3a565b6115e6565b005b610410600480360381019061040b9190612d15565b61160f565b60405161041d9190613247565b60405180910390f35b610440600480360381019061043b9190612b49565b611750565b005b61045c60048036038101906104579190612ddc565b6117f6565b6040516104699190613247565b60405180910390f35b60007f7965db0b000000000000000000000000000000000000000000000000000000007bffffffffffffffffffffffffffffffffffffffffffffffffffffffff1916827bffffffffffffffffffffffffffffffffffffffffffffffffffffffff191614806104e557506104e482611ba8565b5b9050919050565b60006002600084815260200190815260200160002060080160009054906101000a900460ff16610551576040517f08c379a00000000000000000000000000000000000000000000000000000000081526004016105489061343e565b60405180910390fd5b6002600084815260200190815260200160002060080160019054906101000a900460ff166105b4576040517f08c379a00000000000000000000000000000000000000000000000000000000081526004016105ab906134de565b60405180910390fd5b60036000838152602001908152602001600020600201546002600085815260200190815260200160002060010160008282546105f091906136dd565b9250508190555060036000838152602001908152602001600020600201546002600085815260200190815260200160002060050160009054906101000a900473ffffffffffffffffffffffffffffffffffffffff1673ffffffffffffffffffffffffffffffffffffffff166370a08231306040518263ffffffff1660e01b815260040161067d91906131b1565b60206040518083038186803b15801561069557600080fd5b505afa1580156106a9573d6000803e3d6000fd5b505050506040513d601f19601f820116820180604052508101906106cd9190612e46565b101561070e576040517f08c379a00000000000000000000000000000000000000000000000000000000081526004016107059061341e565b60405180910390fd5b600060036000848152602001908152602001600020600701546004600086815260200190815260200160002060030154610748919061392f565b600360008581526020019081526020016000206002015461076991906138d5565b90506002600085815260200190815260200160002060050160009054906101000a900473ffffffffffffffffffffffffffffffffffffffff1673ffffffffffffffffffffffffffffffffffffffff166323b872dd3033612710600460008a815260200190815260200160002060040154866107e491906138d5565b6107ee9190613733565b856107f9919061392f565b6040518463ffffffff1660e01b8152600401610817939291906131cc565b602060405180830381600087803b15801561083157600080fd5b505af1158015610845573d6000803e3d6000fd5b505050506040513d601f19601f820116820180604052508101906108699190612be8565b6108a8576040517f08c379a000000000000000000000000000000000000000000000000000000000815260040161089f906134be565b60405180910390fd5b600191505092915050565b6108dd7fb72b3a91fc43cfd55c7c0304b984a2c2cc43d00fbe824ecb3d7ca6a0b1abd1bb82610968565b50565b60036020528060005260406000206000915090508060000154908060010160009054906101000a900473ffffffffffffffffffffffffffffffffffffffff16908060020154908060030154908060040154908060050154908060060154908060070154905088565b6000606b6000838152602001908152602001600020600101549050919050565b61097182610948565b6109828161097d611c12565b611c1a565b61098c8383611cb7565b505050565b610999611c12565b73ffffffffffffffffffffffffffffffffffffffff168173ffffffffffffffffffffffffffffffffffffffff1614610a06576040517f08c379a00000000000000000000000000000000000000000000000000000000081526004016109fd9061351e565b60405180910390fd5b610a108282611d98565b5050565b6000610a208486611e7a565b610a5f576040517f08c379a0000000000000000000000000000000000000000000000000000000008152600401610a56906133be565b60405180910390fd5b60008311610aa2576040517f08c379a0000000000000000000000000000000000000000000000000000000008152600401610a999061347e565b60405180910390fd5b600260008681526020019081526020016000206002015460026000878152602001908152602001600020600401541415610b745760016002600087815260200190815260200160002060080160006101000a81548160ff0219169083151502179055506002600086815260200190815260200160002060020154600260008781526020019081526020016000206004015410610b73576040517f08c379a0000000000000000000000000000000000000000000000000000000008152600401610b6a9061339e565b60405180910390fd5b5b82600260008781526020019081526020016000206004016000828254610b9a91906136dd565b92505081905550610bab609d611f79565b6000610bb7609d611f8f565b90506040518061010001604052808781526020013373ffffffffffffffffffffffffffffffffffffffff168152602001610c2f600260008a815260200190815260200160002060060154610c216012600a610c1291906137b7565b89611f9d90919063ffffffff16565b611fb390919063ffffffff16565b81526020018581526020016000815260200160008152602001600081526020016000815250600360008381526020019081526020016000206000820151816000015560208201518160010160006101000a81548173ffffffffffffffffffffffffffffffffffffffff021916908373ffffffffffffffffffffffffffffffffffffffff16021790555060408201518160020155606082015181600301556080820151816004015560a0820151816005015560c0820151816006015560e08201518160070155905050600560003373ffffffffffffffffffffffffffffffffffffffff1673ffffffffffffffffffffffffffffffffffffffff168152602001908152602001600020600360008381526020019081526020016000209080600181540180825580915050600190039060005260206000209060080201600090919091909150600082015481600001556001820160009054906101000a900473ffffffffffffffffffffffffffffffffffffffff168160010160006101000a81548173ffffffffffffffffffffffffffffffffffffffff021916908373ffffffffffffffffffffffffffffffffffffffff1602179055506002820154816002015560038201548160030155600482015481600401556005820154816005015560068201548160060155600782015481600701555050600260008781526020019081526020016000206002015460026000888152602001908152602001600020600401541415610e855760016002600088815260200190815260200160002060080160006101000a81548160ff0219169083151502179055505b6000610efa610ecc60016012600a610e9d91906137b7565b610ea7919061392f565b600660008a815260200190815260200160002060040154611f9d90919063ffffffff16565b610eec6012600a610edd91906137b7565b88611f9d90919063ffffffff16565b611f9d90919063ffffffff16565b9050610f2984600160009054906101000a900473ffffffffffffffffffffffffffffffffffffffff1683611fc9565b610f3f84308388610f3a919061392f565b611fc9565b7f553e0fb8046e45de5e6bbb218350863ef0895dae2b201ecbe2a51a8e38b3b9d687338785604051610f749493929190613262565b60405180910390a18192505050949350505050565b610fba7fb72b3a91fc43cfd55c7c0304b984a2c2cc43d00fbe824ecb3d7ca6a0b1abd1bb610fb5611c12565b611285565b610ff9576040517f08c379a0000000000000000000000000000000000000000000000000000000008152600401610ff0906133fe565b60405180910390fd5b6000600260008381526020019081526020016000206004015411611052576040517f08c379a0000000000000000000000000000000000000000000000000000000008152600401611049906134fe565b60405180910390fd5b6002600082815260200190815260200160002060080160009054906101000a900460ff166110b5576040517f08c379a00000000000000000000000000000000000000000000000000000000081526004016110ac9061343e565b60405180910390fd5b60026000828152602001908152602001600020600701600081548110611104577f4e487b7100000000000000000000000000000000000000000000000000000000600052603260045260246000fd5b9060005260206000200160009054906101000a900473ffffffffffffffffffffffffffffffffffffffff1673ffffffffffffffffffffffffffffffffffffffff1663a9059cbb6002600084815260200190815260200160002060080160029054906101000a900473ffffffffffffffffffffffffffffffffffffffff1660026000858152602001908152602001600020600401546040518363ffffffff1660e01b81526004016111b5929190613203565b602060405180830381600087803b1580156111cf57600080fd5b505af11580156111e3573d6000803e3d6000fd5b505050506040513d601f19601f820116820180604052508101906112079190612be8565b611246576040517f08c379a000000000000000000000000000000000000000000000000000000000815260040161123d906134be565b60405180910390fd5b50565b60046020528060005260406000206000915090508060000154908060010154908060020154908060030154908060040154908060050154905086565b6000606b600084815260200190815260200160002060000160008373ffffffffffffffffffffffffffffffffffffffff1673ffffffffffffffffffffffffffffffffffffffff16815260200190815260200160002060009054906101000a900460ff16905092915050565b6005602052816000526040600020818154811061130c57600080fd5b9060005260206000209060080201600091509150508060000154908060010160009054906101000a900473ffffffffffffffffffffffffffffffffffffffff16908060020154908060030154908060040154908060050154908060060154908060070154905088565b6000801b81565b7fb72b3a91fc43cfd55c7c0304b984a2c2cc43d00fbe824ecb3d7ca6a0b1abd1bb81565b60006113d37fb72b3a91fc43cfd55c7c0304b984a2c2cc43d00fbe824ecb3d7ca6a0b1abd1bb6113ce611c12565b611285565b611412576040517f08c379a0000000000000000000000000000000000000000000000000000000008152600401611409906133fe565b60405180910390fd5b6002600083815260200190815260200160002060080160009054906101000a900460ff16611475576040517f08c379a000000000000000000000000000000000000000000000000000000000815260040161146c9061343e565b60405180910390fd5b60016002600084815260200190815260200160002060080160016101000a81548160ff02191690831515021790555060016004600084815260200190815260200160002060030160008282546114cb91906136dd565b925050819055506115296002600084815260200190815260200160002060050160009054906101000a900473ffffffffffffffffffffffffffffffffffffffff16306002600086815260200190815260200160002060000154611fc9565b60019050919050565b60026020528060005260406000206000915090508060000154908060010154908060020154908060030154908060040154908060050160009054906101000a900473ffffffffffffffffffffffffffffffffffffffff16908060060154908060080160009054906101000a900460ff16908060080160019054906101000a900460ff16908060080160029054906101000a900473ffffffffffffffffffffffffffffffffffffffff1690806009015490508b565b6115ef82610948565b611600816115fb611c12565b611c1a565b61160a8383611d98565b505050565b60006116427fb72b3a91fc43cfd55c7c0304b984a2c2cc43d00fbe824ecb3d7ca6a0b1abd1bb61163d611c12565b611285565b611681576040517f08c379a0000000000000000000000000000000000000000000000000000000008152600401611678906133fe565b60405180910390fd5b6000426040516020016116949190613196565b60405160208183030381529060405280519060200120905060006040518060e001604052808b81526020018a81526020018981526020018881526020018781526020018681526020018581525090508060066000848152602001908152602001600020600082015181600001556020820151816001015560408201518160020155606082015181600301556080820151816004015560a0820151816005015560c082015181600601559050508192505050979650505050505050565b83600060026101000a81548173ffffffffffffffffffffffffffffffffffffffff021916908373ffffffffffffffffffffffffffffffffffffffff1602179055506117996121ab565b6117a66000801b8461229c565b6117af826108b3565b80600160006101000a81548173ffffffffffffffffffffffffffffffffffffffff021916908373ffffffffffffffffffffffffffffffffffffffff16021790555050505050565b60006118297fb72b3a91fc43cfd55c7c0304b984a2c2cc43d00fbe824ecb3d7ca6a0b1abd1bb611824611c12565b611285565b611868576040517f08c379a000000000000000000000000000000000000000000000000000000000815260040161185f906133de565b60405180910390fd5b60004260405160200161187b9190613196565b60405160208183030381529060405280519060200120905060006040518061018001604052808560c00151815260200160008152602001856000015181526020016201518086604001516118cf91906138d5565b426118da91906136dd565b8152602001600081526020018560a0015173ffffffffffffffffffffffffffffffffffffffff16815260200161192a6012600a61191791906137b7565b8760800151611f9d90919063ffffffff16565b815260200185602001518152602001600015158152602001600015158152602001856060015173ffffffffffffffffffffffffffffffffffffffff1681526020018381525090508060026000848152602001908152602001600020600082015181600001556020820151816001015560408201518160020155606082015181600301556080820151816004015560a08201518160050160006101000a81548173ffffffffffffffffffffffffffffffffffffffff021916908373ffffffffffffffffffffffffffffffffffffffff16021790555060c0820151816006015560e0820151816007019080519060200190611a2492919061282f565b506101008201518160080160006101000a81548160ff0219169083151502179055506101208201518160080160016101000a81548160ff0219169083151502179055506101408201518160080160026101000a81548173ffffffffffffffffffffffffffffffffffffffff021916908373ffffffffffffffffffffffffffffffffffffffff160217905550610160820151816009015590505060006040518060c001604052808661010001518152602001866101200151815260200186610140015181526020016000815260200186610160015181526020018660e0015181525090508060046000858152602001908152602001600020600082015181600001556020820151816001015560408201518160020155606082015181600301556080820151816004015560a082015181600501559050507f459933e8ab433ea84d37451ff292211a817410e8d275fad7dd00ad3b9ef29e958386600001518760600151604051611b9593929190613325565b60405180910390a1829350505050919050565b60007f01ffc9a7000000000000000000000000000000000000000000000000000000007bffffffffffffffffffffffffffffffffffffffffffffffffffffffff1916827bffffffffffffffffffffffffffffffffffffffffffffffffffffffff1916149050919050565b600033905090565b611c248282611285565b611cb357611c498173ffffffffffffffffffffffffffffffffffffffff1660146122aa565b611c578360001c60206122aa565b604051602001611c6892919061315c565b6040516020818303038152906040526040517f08c379a0000000000000000000000000000000000000000000000000000000008152600401611caa919061335c565b60405180910390fd5b5050565b611cc18282611285565b611d94576001606b600084815260200190815260200160002060000160008373ffffffffffffffffffffffffffffffffffffffff1673ffffffffffffffffffffffffffffffffffffffff16815260200190815260200160002060006101000a81548160ff021916908315150217905550611d39611c12565b73ffffffffffffffffffffffffffffffffffffffff168173ffffffffffffffffffffffffffffffffffffffff16837f2f8788117e7eff1d82e926ec794901d17c78024a50270940304540a733656f0d60405160405180910390a45b5050565b611da28282611285565b15611e76576000606b600084815260200190815260200160002060000160008373ffffffffffffffffffffffffffffffffffffffff1673ffffffffffffffffffffffffffffffffffffffff16815260200190815260200160002060006101000a81548160ff021916908315150217905550611e1b611c12565b73ffffffffffffffffffffffffffffffffffffffff168173ffffffffffffffffffffffffffffffffffffffff16837ff6391f5c32d9c69d2a47ea670b442974b53935d1edc7fd64eb21e047a839171b60405160405180910390a45b5050565b6000816006600085815260200190815260200160002060000154148015611f605750600060029054906101000a900473ffffffffffffffffffffffffffffffffffffffff1673ffffffffffffffffffffffffffffffffffffffff166325df56a23360066000878152602001908152602001600020600101546040518363ffffffff1660e01b8152600401611f0f929190613203565b60206040518083038186803b158015611f2757600080fd5b505afa158015611f3b573d6000803e3d6000fd5b505050506040513d601f19601f82011682018060405250810190611f5f9190612be8565b5b15611f6e5760019050611f73565b600090505b92915050565b6001816000016000828254019250508190555050565b600081600001549050919050565b60008183611fab91906138d5565b905092915050565b60008183611fc19190613733565b905092915050565b600081141561200d576040517f08c379a00000000000000000000000000000000000000000000000000000000081526004016120049061349e565b60405180910390fd5b808373ffffffffffffffffffffffffffffffffffffffff166370a08231336040518263ffffffff1660e01b815260040161204791906131b1565b60206040518083038186803b15801561205f57600080fd5b505afa158015612073573d6000803e3d6000fd5b505050506040513d601f19601f820116820180604052508101906120979190612e46565b10156120d8576040517f08c379a00000000000000000000000000000000000000000000000000000000081526004016120cf9061341e565b60405180910390fd5b8273ffffffffffffffffffffffffffffffffffffffff166323b872dd3384846040518463ffffffff1660e01b8152600401612115939291906131cc565b602060405180830381600087803b15801561212f57600080fd5b505af1158015612143573d6000803e3d6000fd5b505050506040513d601f19601f820116820180604052508101906121679190612be8565b6121a6576040517f08c379a000000000000000000000000000000000000000000000000000000000815260040161219d906134be565b60405180910390fd5b505050565b600060019054906101000a900460ff16806121d1575060008054906101000a900460ff16155b612210576040517f08c379a00000000000000000000000000000000000000000000000000000000081526004016122079061345e565b60405180910390fd5b60008060019054906101000a900460ff161590508015612260576001600060016101000a81548160ff02191690831515021790555060016000806101000a81548160ff0219169083151502179055505b6122686125a4565b61227061267d565b612278612756565b80156122995760008060016101000a81548160ff0219169083151502179055505b50565b6122a68282611cb7565b5050565b6060600060028360026122bd91906138d5565b6122c791906136dd565b67ffffffffffffffff811115612306577f4e487b7100000000000000000000000000000000000000000000000000000000600052604160045260246000fd5b6040519080825280601f01601f1916602001820160405280156123385781602001600182028036833780820191505090505b5090507f300000000000000000000000000000000000000000000000000000000000000081600081518110612396577f4e487b7100000000000000000000000000000000000000000000000000000000600052603260045260246000fd5b60200101907effffffffffffffffffffffffffffffffffffffffffffffffffffffffffffff1916908160001a9053507f780000000000000000000000000000000000000000000000000000000000000081600181518110612420577f4e487b7100000000000000000000000000000000000000000000000000000000600052603260045260246000fd5b60200101907effffffffffffffffffffffffffffffffffffffffffffffffffffffffffffff1916908160001a9053506000600184600261246091906138d5565b61246a91906136dd565b90505b6001811115612556577f3031323334353637383961626364656600000000000000000000000000000000600f8616601081106124d2577f4e487b7100000000000000000000000000000000000000000000000000000000600052603260045260246000fd5b1a60f81b82828151811061250f577f4e487b7100000000000000000000000000000000000000000000000000000000600052603260045260246000fd5b60200101907effffffffffffffffffffffffffffffffffffffffffffffffffffffffffffff1916908160001a905350600485901c94508061254f90613a14565b905061246d565b506000841461259a576040517f08c379a00000000000000000000000000000000000000000000000000000000081526004016125919061337e565b60405180910390fd5b8091505092915050565b600060019054906101000a900460ff16806125ca575060008054906101000a900460ff16155b612609576040517f08c379a00000000000000000000000000000000000000000000000000000000081526004016126009061345e565b60405180910390fd5b60008060019054906101000a900460ff161590508015612659576001600060016101000a81548160ff02191690831515021790555060016000806101000a81548160ff0219169083151502179055505b801561267a5760008060016101000a81548160ff0219169083151502179055505b50565b600060019054906101000a900460ff16806126a3575060008054906101000a900460ff16155b6126e2576040517f08c379a00000000000000000000000000000000000000000000000000000000081526004016126d99061345e565b60405180910390fd5b60008060019054906101000a900460ff161590508015612732576001600060016101000a81548160ff02191690831515021790555060016000806101000a81548160ff0219169083151502179055505b80156127535760008060016101000a81548160ff0219169083151502179055505b50565b600060019054906101000a900460ff168061277c575060008054906101000a900460ff16155b6127bb576040517f08c379a00000000000000000000000000000000000000000000000000000000081526004016127b29061345e565b60405180910390fd5b60008060019054906101000a900460ff16159050801561280b576001600060016101000a81548160ff02191690831515021790555060016000806101000a81548160ff0219169083151502179055505b801561282c5760008060016101000a81548160ff0219169083151502179055505b50565b8280548282559060005260206000209081019282156128a8579160200282015b828111156128a75782518260006101000a81548173ffffffffffffffffffffffffffffffffffffffff021916908373ffffffffffffffffffffffffffffffffffffffff1602179055509160200191906001019061284f565b5b5090506128b591906128b9565b5090565b5b808211156128d25760008160009055506001016128ba565b5090565b60006128e96128e48461368a565b613665565b9050808382526020820190508285602086028201111561290857600080fd5b60005b85811015612938578161291e8882612942565b84526020840193506020830192505060018101905061290b565b5050509392505050565b60008135905061295181613e26565b92915050565b600082601f83011261296857600080fd5b81356129788482602086016128d6565b91505092915050565b60008151905061299081613e3d565b92915050565b6000813590506129a581613e54565b92915050565b6000813590506129ba81613e6b565b92915050565b600061018082840312156129d357600080fd5b6129de610180613665565b905060006129ee84828501612af6565b600083015250602082013567ffffffffffffffff811115612a0e57600080fd5b612a1a84828501612957565b6020830152506040612a2e84828501612af6565b6040830152506060612a4284828501612942565b6060830152506080612a5684828501612af6565b60808301525060a0612a6a84828501612942565b60a08301525060c0612a7e84828501612af6565b60c08301525060e0612a9284828501612af6565b60e083015250610100612aa784828501612af6565b61010083015250610120612abd84828501612af6565b61012083015250610140612ad384828501612af6565b61014083015250610160612ae984828501612af6565b6101608301525092915050565b600081359050612b0581613e82565b92915050565b600081519050612b1a81613e82565b92915050565b600060208284031215612b3257600080fd5b6000612b4084828501612942565b91505092915050565b60008060008060808587031215612b5f57600080fd5b6000612b6d87828801612942565b9450506020612b7e87828801612942565b9350506040612b8f87828801612942565b9250506060612ba087828801612942565b91505092959194509250565b60008060408385031215612bbf57600080fd5b6000612bcd85828601612942565b9250506020612bde85828601612af6565b9150509250929050565b600060208284031215612bfa57600080fd5b6000612c0884828501612981565b91505092915050565b600060208284031215612c2357600080fd5b6000612c3184828501612996565b91505092915050565b60008060408385031215612c4d57600080fd5b6000612c5b85828601612996565b9250506020612c6c85828601612942565b9150509250929050565b60008060008060808587031215612c8c57600080fd5b6000612c9a87828801612996565b9450506020612cab87828801612996565b9350506040612cbc87828801612af6565b9250506060612ccd87828801612942565b91505092959194509250565b60008060408385031215612cec57600080fd5b6000612cfa85828601612996565b9250506020612d0b85828601612af6565b9150509250929050565b600080600080600080600060e0888a031215612d3057600080fd5b6000612d3e8a828b01612996565b9750506020612d4f8a828b01612af6565b9650506040612d608a828b01612af6565b9550506060612d718a828b01612af6565b9450506080612d828a828b01612af6565b93505060a0612d938a828b01612af6565b92505060c0612da48a828b01612af6565b91505092959891949750929550565b600060208284031215612dc557600080fd5b6000612dd3848285016129ab565b91505092915050565b600060208284031215612dee57600080fd5b600082013567ffffffffffffffff811115612e0857600080fd5b612e14848285016129c0565b91505092915050565b600060208284031215612e2f57600080fd5b6000612e3d84828501612af6565b91505092915050565b600060208284031215612e5857600080fd5b6000612e6684828501612b0b565b91505092915050565b612e7881613963565b82525050565b612e8781613975565b82525050565b612e9681613981565b82525050565b6000612ea7826136b6565b612eb181856136c1565b9350612ec18185602086016139e1565b612eca81613b06565b840191505092915050565b6000612ee0826136b6565b612eea81856136d2565b9350612efa8185602086016139e1565b80840191505092915050565b6000612f136020836136c1565b9150612f1e82613b24565b602082019050919050565b6000612f36600e836136c1565b9150612f4182613b4d565b602082019050919050565b6000612f59601b836136c1565b9150612f6482613b76565b602082019050919050565b6000612f7c601a836136c1565b9150612f8782613b9f565b602082019050919050565b6000612f9f601b836136c1565b9150612faa82613bc8565b602082019050919050565b6000612fc26014836136c1565b9150612fcd82613bf1565b602082019050919050565b6000612fe56014836136c1565b9150612ff082613c1a565b602082019050919050565b6000613008602e836136c1565b915061301382613c43565b604082019050919050565b600061302b600e836136c1565b915061303682613c92565b602082019050919050565b600061304e600b836136c1565b915061305982613cbb565b602082019050919050565b6000613071601d836136c1565b915061307c82613ce4565b602082019050919050565b60006130946017836136d2565b915061309f82613d0d565b601782019050919050565b60006130b76022836136c1565b91506130c282613d36565b604082019050919050565b60006130da600c836136c1565b91506130e582613d85565b602082019050919050565b60006130fd6011836136d2565b915061310882613dae565b601182019050919050565b6000613120602f836136c1565b915061312b82613dd7565b604082019050919050565b61313f816139d7565b82525050565b613156613151826139d7565b613a6f565b82525050565b600061316782613087565b91506131738285612ed5565b915061317e826130f0565b915061318a8284612ed5565b91508190509392505050565b60006131a28284613145565b60208201915081905092915050565b60006020820190506131c66000830184612e6f565b92915050565b60006060820190506131e16000830186612e6f565b6131ee6020830185612e6f565b6131fb6040830184613136565b949350505050565b60006040820190506132186000830185612e6f565b6132256020830184613136565b9392505050565b60006020820190506132416000830184612e7e565b92915050565b600060208201905061325c6000830184612e8d565b92915050565b60006080820190506132776000830187612e8d565b6132846020830186612e6f565b6132916040830185613136565b61329e6060830184613136565b95945050505050565b6000610100820190506132bd600083018b612e8d565b6132ca602083018a612e6f565b6132d76040830189613136565b6132e46060830188613136565b6132f16080830187613136565b6132fe60a0830186613136565b61330b60c0830185613136565b61331860e0830184613136565b9998505050505050505050565b600060608201905061333a6000830186612e8d565b6133476020830185613136565b6133546040830184612e6f565b949350505050565b600060208201905081810360008301526133768184612e9c565b905092915050565b6000602082019050818103600083015261339781612f06565b9050919050565b600060208201905081810360008301526133b781612f29565b9050919050565b600060208201905081810360008301526133d781612f4c565b9050919050565b600060208201905081810360008301526133f781612f6f565b9050919050565b6000602082019050818103600083015261341781612f92565b9050919050565b6000602082019050818103600083015261343781612fb5565b9050919050565b6000602082019050818103600083015261345781612fd8565b9050919050565b6000602082019050818103600083015261347781612ffb565b9050919050565b600060208201905081810360008301526134978161301e565b9050919050565b600060208201905081810360008301526134b781613041565b9050919050565b600060208201905081810360008301526134d781613064565b9050919050565b600060208201905081810360008301526134f7816130aa565b9050919050565b60006020820190508181036000830152613517816130cd565b9050919050565b6000602082019050818103600083015261353781613113565b9050919050565b60006020820190506135536000830184613136565b92915050565b60006101608201905061356f600083018e613136565b61357c602083018d613136565b613589604083018c613136565b613596606083018b613136565b6135a3608083018a613136565b6135b060a0830189612e6f565b6135bd60c0830188613136565b6135ca60e0830187612e7e565b6135d8610100830186612e7e565b6135e6610120830185612e6f565b6135f4610140830184612e8d565b9c9b505050505050505050505050565b600060c0820190506136196000830189613136565b6136266020830188613136565b6136336040830187613136565b6136406060830186613136565b61364d6080830185613136565b61365a60a0830184613136565b979650505050505050565b600061366f613680565b905061367b8282613a3e565b919050565b6000604051905090565b600067ffffffffffffffff8211156136a5576136a4613ad7565b5b602082029050602081019050919050565b600081519050919050565b600082825260208201905092915050565b600081905092915050565b60006136e8826139d7565b91506136f3836139d7565b9250827fffffffffffffffffffffffffffffffffffffffffffffffffffffffffffffffff0382111561372857613727613a79565b5b828201905092915050565b600061373e826139d7565b9150613749836139d7565b92508261375957613758613aa8565b5b828204905092915050565b6000808291508390505b60018511156137ae5780860481111561378a57613789613a79565b5b60018516156137995780820291505b80810290506137a785613b17565b945061376e565b94509492505050565b60006137c2826139d7565b91506137cd836139d7565b92506137fa7fffffffffffffffffffffffffffffffffffffffffffffffffffffffffffffffff8484613802565b905092915050565b60008261381257600190506138ce565b8161382057600090506138ce565b816001811461383657600281146138405761386f565b60019150506138ce565b60ff84111561385257613851613a79565b5b8360020a91508482111561386957613868613a79565b5b506138ce565b5060208310610133831016604e8410600b84101617156138a45782820a90508381111561389f5761389e613a79565b5b6138ce565b6138b18484846001613764565b925090508184048111156138c8576138c7613a79565b5b81810290505b9392505050565b60006138e0826139d7565b91506138eb836139d7565b9250817fffffffffffffffffffffffffffffffffffffffffffffffffffffffffffffffff048311821515161561392457613923613a79565b5b828202905092915050565b600061393a826139d7565b9150613945836139d7565b92508282101561395857613957613a79565b5b828203905092915050565b600061396e826139b7565b9050919050565b60008115159050919050565b6000819050919050565b60007fffffffff0000000000000000000000000000000000000000000000000000000082169050919050565b600073ffffffffffffffffffffffffffffffffffffffff82169050919050565b6000819050919050565b60005b838110156139ff5780820151818401526020810190506139e4565b83811115613a0e576000848401525b50505050565b6000613a1f826139d7565b91506000821415613a3357613a32613a79565b5b600182039050919050565b613a4782613b06565b810181811067ffffffffffffffff82111715613a6657613a65613ad7565b5b80604052505050565b6000819050919050565b7f4e487b7100000000000000000000000000000000000000000000000000000000600052601160045260246000fd5b7f4e487b7100000000000000000000000000000000000000000000000000000000600052601260045260246000fd5b7f4e487b7100000000000000000000000000000000000000000000000000000000600052604160045260246000fd5b6000601f19601f8301169050919050565b60008160011c9050919050565b7f537472696e67733a20686578206c656e67746820696e73756666696369656e74600082015250565b7f5461726765742072656163686564000000000000000000000000000000000000600082015250565b7f4e4f54205045524d495454454420544f20434f4e545249425554450000000000600082015250565b7f526f636b65745f41646d696e5f524f4c45207265717569726564000000000000600082015250565b7f6d757374206861766520526f636b65742041646d696e20726f6c650000000000600082015250565b7f496e73756666696369656e742062616c616e6365000000000000000000000000600082015250565b7f506f6f6c206973207374696c6c20616374697665000000000000000000000000600082015250565b7f496e697469616c697a61626c653a20636f6e747261637420697320616c72656160008201527f647920696e697469616c697a6564000000000000000000000000000000000000602082015250565b7f416d6f756e74206973207a65726f000000000000000000000000000000000000600082015250565b7f416d6f756e742069732030000000000000000000000000000000000000000000600082015250565b7f5472616e73666572206661696c656420616e642072657665727465642e000000600082015250565b7f416363657373436f6e74726f6c3a206163636f756e7420000000000000000000600082015250565b7f506f6f6c20686173206e6f7420726563656976652072657761726420746f6b6560008201527f6e73000000000000000000000000000000000000000000000000000000000000602082015250565b7f496e76616c696420706f6f6c0000000000000000000000000000000000000000600082015250565b7f206973206d697373696e6720726f6c6520000000000000000000000000000000600082015250565b7f416363657373436f6e74726f6c3a2063616e206f6e6c792072656e6f756e636560008201527f20726f6c657320666f722073656c660000000000000000000000000000000000602082015250565b613e2f81613963565b8114613e3a57600080fd5b50565b613e4681613975565b8114613e5157600080fd5b50565b613e5d81613981565b8114613e6857600080fd5b50565b613e748161398b565b8114613e7f57600080fd5b50565b613e8b816139d7565b8114613e9657600080fd5b5056fea26469706673582212205803c013c68bcf06fac94f7fac4677597aa2db6411c19ab471ac824494b6caea64736f6c63430008020033",
  "linkReferences": {},
  "deployedLinkReferences": {}
}