{
  "_format": "hh-sol-artifact-1",
  "contractName": "PermissionManager",
  "sourceName": "contracts/permissioning/PermissionManager.sol",
  "abi": [
    {
      "anonymous": false,
      "inputs": [
        {
          "indexed": true,
          "internalType": "address",
          "name": "newPermissions",
          "type": "address"
        }
      ],
      "name": "PermissionItemsSet",
      "type": "event"
    },
    {
      "anonymous": false,
      "inputs": [
        {
          "indexed": true,
          "internalType": "bytes32",
          "name": "role",
          "type": "bytes32"
        },
        {
          "indexed": true,
          "internalType": "bytes32",
          "name": "previousAdminRole",
          "type": "bytes32"
        },
        {
          "indexed": true,
          "internalType": "bytes32",
          "name": "newAdminRole",
          "type": "bytes32"
        }
      ],
      "name": "RoleAdminChanged",
      "type": "event"
    },
    {
      "anonymous": false,
      "inputs": [
        {
          "indexed": true,
          "internalType": "bytes32",
          "name": "role",
          "type": "bytes32"
        },
        {
          "indexed": true,
          "internalType": "address",
          "name": "account",
          "type": "address"
        },
        {
          "indexed": true,
          "internalType": "address",
          "name": "sender",
          "type": "address"
        }
      ],
      "name": "RoleGranted",
      "type": "event"
    },
    {
      "anonymous": false,
      "inputs": [
        {
          "indexed": true,
          "internalType": "bytes32",
          "name": "role",
          "type": "bytes32"
        },
        {
          "indexed": true,
          "internalType": "address",
          "name": "account",
          "type": "address"
        },
        {
          "indexed": true,
          "internalType": "address",
          "name": "sender",
          "type": "address"
        }
      ],
      "name": "RoleRevoked",
      "type": "event"
    },
    {
      "inputs": [],
      "name": "DEFAULT_ADMIN_ROLE",
      "outputs": [
        {
          "internalType": "bytes32",
          "name": "",
          "type": "bytes32"
        }
      ],
      "stateMutability": "view",
      "type": "function"
    },
    {
      "inputs": [],
      "name": "PERMISSIONS_ADMIN_ROLE",
      "outputs": [
        {
          "internalType": "bytes32",
          "name": "",
          "type": "bytes32"
        }
      ],
      "stateMutability": "view",
      "type": "function"
    },
    {
      "inputs": [],
      "name": "REJECTED_ID",
      "outputs": [
        {
          "internalType": "uint256",
          "name": "",
          "type": "uint256"
        }
      ],
      "stateMutability": "view",
      "type": "function"
    },
    {
      "inputs": [],
      "name": "SUSPENDED_ID",
      "outputs": [
        {
          "internalType": "uint256",
          "name": "",
          "type": "uint256"
        }
      ],
      "stateMutability": "view",
      "type": "function"
    },
    {
      "inputs": [
        {
          "internalType": "uint256",
          "name": "_itemId",
          "type": "uint256"
        },
        {
          "internalType": "address[]",
          "name": "_accounts",
          "type": "address[]"
        }
      ],
      "name": "assignItem",
      "outputs": [],
      "stateMutability": "nonpayable",
      "type": "function"
    },
    {
      "inputs": [
        {
          "internalType": "address[]",
          "name": "_accounts",
          "type": "address[]"
        },
        {
          "internalType": "uint256",
          "name": "_tierId",
          "type": "uint256"
        }
      ],
      "name": "assingTier",
      "outputs": [],
      "stateMutability": "nonpayable",
      "type": "function"
    },
    {
      "inputs": [
        {
          "internalType": "uint256",
          "name": "_tierId",
          "type": "uint256"
        },
        {
          "internalType": "string",
          "name": "_tierName",
          "type": "string"
        }
      ],
      "name": "createTier",
      "outputs": [],
      "stateMutability": "nonpayable",
      "type": "function"
    },
    {
      "inputs": [
        {
          "internalType": "bytes32",
          "name": "role",
          "type": "bytes32"
        }
      ],
      "name": "getRoleAdmin",
      "outputs": [
        {
          "internalType": "bytes32",
          "name": "",
          "type": "bytes32"
        }
      ],
      "stateMutability": "view",
      "type": "function"
    },
    {
      "inputs": [
        {
          "internalType": "bytes32",
          "name": "role",
          "type": "bytes32"
        },
        {
          "internalType": "address",
          "name": "account",
          "type": "address"
        }
      ],
      "name": "grantRole",
      "outputs": [],
      "stateMutability": "nonpayable",
      "type": "function"
    },
    {
      "inputs": [
        {
          "internalType": "bytes32",
          "name": "role",
          "type": "bytes32"
        },
        {
          "internalType": "address",
          "name": "account",
          "type": "address"
        }
      ],
      "name": "hasRole",
      "outputs": [
        {
          "internalType": "bool",
          "name": "",
          "type": "bool"
        }
      ],
      "stateMutability": "view",
      "type": "function"
    },
    {
      "inputs": [
        {
          "internalType": "address",
          "name": "_permissionItems",
          "type": "address"
        },
        {
          "internalType": "address",
          "name": "_admin",
          "type": "address"
        }
      ],
      "name": "initialize",
      "outputs": [],
      "stateMutability": "nonpayable",
      "type": "function"
    },
    {
      "inputs": [
        {
          "internalType": "address",
          "name": "_account",
          "type": "address"
        }
      ],
      "name": "isRejected",
      "outputs": [
        {
          "internalType": "bool",
          "name": "",
          "type": "bool"
        }
      ],
      "stateMutability": "view",
      "type": "function"
    },
    {
      "inputs": [
        {
          "internalType": "address",
          "name": "_account",
          "type": "address"
        }
      ],
      "name": "isSuspended",
      "outputs": [
        {
          "internalType": "bool",
          "name": "",
          "type": "bool"
        }
      ],
      "stateMutability": "view",
      "type": "function"
    },
    {
      "inputs": [],
      "name": "permissionItems",
      "outputs": [
        {
          "internalType": "address",
          "name": "",
          "type": "address"
        }
      ],
      "stateMutability": "view",
      "type": "function"
    },
    {
      "inputs": [
        {
          "internalType": "address[]",
          "name": "_users",
          "type": "address[]"
        }
      ],
      "name": "rejectUser",
      "outputs": [],
      "stateMutability": "nonpayable",
      "type": "function"
    },
    {
      "inputs": [
        {
          "internalType": "uint256",
          "name": "_itemId",
          "type": "uint256"
        },
        {
          "internalType": "address[]",
          "name": "_accounts",
          "type": "address[]"
        }
      ],
      "name": "removeItem",
      "outputs": [],
      "stateMutability": "nonpayable",
      "type": "function"
    },
    {
      "inputs": [
        {
          "internalType": "bytes32",
          "name": "role",
          "type": "bytes32"
        },
        {
          "internalType": "address",
          "name": "account",
          "type": "address"
        }
      ],
      "name": "renounceRole",
      "outputs": [],
      "stateMutability": "nonpayable",
      "type": "function"
    },
    {
      "inputs": [
        {
          "internalType": "bytes32",
          "name": "role",
          "type": "bytes32"
        },
        {
          "internalType": "address",
          "name": "account",
          "type": "address"
        }
      ],
      "name": "revokeRole",
      "outputs": [],
      "stateMutability": "nonpayable",
      "type": "function"
    },
    {
      "inputs": [
        {
          "internalType": "address[]",
          "name": "_accounts",
          "type": "address[]"
        },
        {
          "internalType": "uint256",
          "name": "_tierId",
          "type": "uint256"
        }
      ],
      "name": "revokeTier",
      "outputs": [],
      "stateMutability": "nonpayable",
      "type": "function"
    },
    {
      "inputs": [
        {
          "internalType": "address",
          "name": "_permissionItems",
          "type": "address"
        }
      ],
      "name": "setPermissionItems",
      "outputs": [
        {
          "internalType": "bool",
          "name": "",
          "type": "bool"
        }
      ],
      "stateMutability": "nonpayable",
      "type": "function"
    },
    {
      "inputs": [
        {
          "internalType": "address",
          "name": "_permissionsAdmin",
          "type": "address"
        }
      ],
      "name": "setPermissionsAdmin",
      "outputs": [],
      "stateMutability": "nonpayable",
      "type": "function"
    },
    {
      "inputs": [
        {
          "internalType": "bytes4",
          "name": "interfaceId",
          "type": "bytes4"
        }
      ],
      "name": "supportsInterface",
      "outputs": [
        {
          "internalType": "bool",
          "name": "",
          "type": "bool"
        }
      ],
      "stateMutability": "view",
      "type": "function"
    },
    {
      "inputs": [
        {
          "internalType": "address[]",
          "name": "_users",
          "type": "address[]"
        }
      ],
      "name": "suspendUser",
      "outputs": [],
      "stateMutability": "nonpayable",
      "type": "function"
    },
    {
      "inputs": [
        {
          "internalType": "address[]",
          "name": "_users",
          "type": "address[]"
        }
      ],
      "name": "unrejectUser",
      "outputs": [],
      "stateMutability": "nonpayable",
      "type": "function"
    },
    {
      "inputs": [
        {
          "internalType": "address[]",
          "name": "_users",
          "type": "address[]"
        }
      ],
      "name": "unsuspendUser",
      "outputs": [],
      "stateMutability": "nonpayable",
      "type": "function"
    },
    {
      "inputs": [
        {
          "internalType": "address",
          "name": "_user",
          "type": "address"
        },
        {
          "internalType": "uint256",
          "name": "itemId",
          "type": "uint256"
        }
      ],
      "name": "userHasItem",
      "outputs": [
        {
          "internalType": "bool",
          "name": "",
          "type": "bool"
        }
      ],
      "stateMutability": "view",
      "type": "function"
    }
  ],
  "bytecode": "0x608060405234801561001057600080fd5b50613b8f806100206000396000f3fe608060405234801561001057600080fd5b506004361061018e5760003560e01c806348a46bd3116100de57806391162cf711610097578063cbbc66ef11610071578063cbbc66ef1461048b578063d547741f146104a9578063d9d7b472146104c5578063fc8a5364146104e35761018e565b806391162cf71461042157806391d148541461043d578063a217fddf1461046d5761018e565b806348a46bd31461036557806362071a291461039557806365d1dd43146103b15780637d43a3b1146103cd5780638752971c146103e95780638ba91ac5146104055761018e565b8063248a9ca31161014b5780632f2ff15d116101255780632f2ff15d146102f557806336568abe1461031157806339121b101461032d578063485cc955146103495761018e565b8063248a9ca31461027757806325df56a2146102a757806329a363e9146102d75761018e565b806301ffc9a7146101935780631897f18b146101c357806318dc8bed146101df5780631f29d64e1461020f57806320b9e9321461022b578063232e0e9a14610247575b600080fd5b6101ad60048036038101906101a89190612a05565b610501565b6040516101ba9190613018565b60405180910390f35b6101dd60048036038101906101d8919061290b565b61057b565b005b6101f960048036038101906101f4919061286a565b610769565b6040516102069190613018565b60405180910390f35b61022960048036038101906102249190612a57565b6108bb565b005b6102456004803603810190610240919061294c565b610aaa565b005b610261600480360381019061025c919061286a565b610cae565b60405161026e9190613018565b60405180910390f35b610291600480360381019061028c91906129a0565b610cc2565b60405161029e9190613033565b60405180910390f35b6102c160048036038101906102bc91906128cf565b610ce2565b6040516102ce9190613018565b60405180910390f35b6102df610cf6565b6040516102ec9190613033565b60405180910390f35b61030f600480360381019061030a91906129c9565b610d1a565b005b61032b600480360381019061032691906129c9565b610d43565b005b6103476004803603810190610342919061290b565b610dc6565b005b610363600480360381019061035e9190612893565b610fb4565b005b61037f600480360381019061037a919061286a565b61122a565b60405161038c9190613018565b60405180910390f35b6103af60048036038101906103aa9190612a57565b61123e565b005b6103cb60048036038101906103c69190612aab565b61142e565b005b6103e760048036038101906103e2919061286a565b6114ca565b005b61040360048036038101906103fe919061294c565b6115ba565b005b61041f600480360381019061041a919061290b565b6117a9565b005b61043b6004803603810190610436919061290b565b611998565b005b610457600480360381019061045291906129c9565b611b87565b6040516104649190613018565b60405180910390f35b610475611bf2565b6040516104829190613033565b60405180910390f35b610493611bf9565b6040516104a09190613270565b60405180910390f35b6104c360048036038101906104be91906129c9565b611bfe565b005b6104cd611c27565b6040516104da9190613270565b60405180910390f35b6104eb611c2c565b6040516104f89190612f07565b60405180910390f35b60007f7965db0b000000000000000000000000000000000000000000000000000000007bffffffffffffffffffffffffffffffffffffffffffffffffffffffff1916827bffffffffffffffffffffffffffffffffffffffffffffffffffffffff19161480610574575061057382611c52565b5b9050919050565b6105ac7ff0303df69e2386d84f0d1b8823a00970e6506cfd9a69a69889045683cbd9e2a76105a7611cbc565b611b87565b6105eb576040517f08c379a00000000000000000000000000000000000000000000000000000000081526004016105e290613150565b60405180910390fd5b60005b815181101561076557610640828281518110610633577f4e487b7100000000000000000000000000000000000000000000000000000000600052603260045260246000fd5b602002602001015161122a565b61067f576040517f08c379a0000000000000000000000000000000000000000000000000000000008152600401610676906130d0565b60405180910390fd5b609760009054906101000a900473ffffffffffffffffffffffffffffffffffffffff1673ffffffffffffffffffffffffffffffffffffffff1663f5298aca8383815181106106f6577f4e487b7100000000000000000000000000000000000000000000000000000000600052603260045260246000fd5b6020026020010151600360016040518463ffffffff1660e01b815260040161072093929190612f4b565b600060405180830381600087803b15801561073a57600080fd5b505af115801561074e573d6000803e3d6000fd5b50505050808061075d90613569565b9150506105ee565b5050565b600061077f6000801b61077a611cbc565b611b87565b6107be576040517f08c379a00000000000000000000000000000000000000000000000000000000081526004016107b5906130b0565b60405180910390fd5b600073ffffffffffffffffffffffffffffffffffffffff168273ffffffffffffffffffffffffffffffffffffffff16141561082e576040517f08c379a0000000000000000000000000000000000000000000000000000000008152600401610825906130f0565b60405180910390fd5b8173ffffffffffffffffffffffffffffffffffffffff167fdcd171a114b3defbe6183db035bfa13bf4bc50a165623de6bebb68dcad82fa6460405160405180910390a281609760006101000a81548173ffffffffffffffffffffffffffffffffffffffff021916908373ffffffffffffffffffffffffffffffffffffffff16021790555060019050919050565b6108ec7ff0303df69e2386d84f0d1b8823a00970e6506cfd9a69a69889045683cbd9e2a76108e7611cbc565b611b87565b61092b576040517f08c379a000000000000000000000000000000000000000000000000000000000815260040161092290613150565b60405180910390fd5b60005b8151811015610aa557610981828281518110610973577f4e487b7100000000000000000000000000000000000000000000000000000000600052603260045260246000fd5b602002602001015184611cc4565b6109c0576040517f08c379a00000000000000000000000000000000000000000000000000000000081526004016109b790613190565b60405180910390fd5b609760009054906101000a900473ffffffffffffffffffffffffffffffffffffffff1673ffffffffffffffffffffffffffffffffffffffff1663f5298aca838381518110610a37577f4e487b7100000000000000000000000000000000000000000000000000000000600052603260045260246000fd5b60200260200101518560016040518463ffffffff1660e01b8152600401610a6093929190612f4b565b600060405180830381600087803b158015610a7a57600080fd5b505af1158015610a8e573d6000803e3d6000fd5b505050508080610a9d90613569565b91505061092e565b505050565b610adb7ff0303df69e2386d84f0d1b8823a00970e6506cfd9a69a69889045683cbd9e2a7610ad6611cbc565b611b87565b610b1a576040517f08c379a0000000000000000000000000000000000000000000000000000000008152600401610b1190613150565b60405180910390fd5b60005b8251811015610ca957610b70838281518110610b62577f4e487b7100000000000000000000000000000000000000000000000000000000600052603260045260246000fd5b602002602001015183611cc4565b15610bb0576040517f08c379a0000000000000000000000000000000000000000000000000000000008152600401610ba790613210565b60405180910390fd5b609760009054906101000a900473ffffffffffffffffffffffffffffffffffffffff1673ffffffffffffffffffffffffffffffffffffffff1663731133e9848381518110610c27577f4e487b7100000000000000000000000000000000000000000000000000000000600052603260045260246000fd5b6020026020010151846001609860008881526020019081526020016000206040518563ffffffff1660e01b8152600401610c649493929190612f82565b600060405180830381600087803b158015610c7e57600080fd5b505af1158015610c92573d6000803e3d6000fd5b505050508080610ca190613569565b915050610b1d565b505050565b6000610cbb826000611cc4565b9050919050565b600060656000838152602001908152602001600020600101549050919050565b6000610cee8383611cc4565b905092915050565b7ff0303df69e2386d84f0d1b8823a00970e6506cfd9a69a69889045683cbd9e2a781565b610d2382610cc2565b610d3481610d2f611cbc565b611d7c565b610d3e8383611e19565b505050565b610d4b611cbc565b73ffffffffffffffffffffffffffffffffffffffff168173ffffffffffffffffffffffffffffffffffffffff1614610db8576040517f08c379a0000000000000000000000000000000000000000000000000000000008152600401610daf90613230565b60405180910390fd5b610dc28282611efa565b5050565b610df77ff0303df69e2386d84f0d1b8823a00970e6506cfd9a69a69889045683cbd9e2a7610df2611cbc565b611b87565b610e36576040517f08c379a0000000000000000000000000000000000000000000000000000000008152600401610e2d90613150565b60405180910390fd5b60005b8151811015610fb057610e8b828281518110610e7e577f4e487b7100000000000000000000000000000000000000000000000000000000600052603260045260246000fd5b6020026020010151610cae565b610eca576040517f08c379a0000000000000000000000000000000000000000000000000000000008152600401610ec1906131f0565b60405180910390fd5b609760009054906101000a900473ffffffffffffffffffffffffffffffffffffffff1673ffffffffffffffffffffffffffffffffffffffff1663f5298aca838381518110610f41577f4e487b7100000000000000000000000000000000000000000000000000000000600052603260045260246000fd5b6020026020010151600060016040518463ffffffff1660e01b8152600401610f6b93929190612f4b565b600060405180830381600087803b158015610f8557600080fd5b505af1158015610f99573d6000803e3d6000fd5b505050508080610fa890613569565b915050610e39565b5050565b600060019054906101000a900460ff1680610fda575060008054906101000a900460ff16155b611019576040517f08c379a000000000000000000000000000000000000000000000000000000000815260040161101090613130565b60405180910390fd5b60008060019054906101000a900460ff161590508015611069576001600060016101000a81548160ff02191690831515021790555060016000806101000a81548160ff0219169083151502179055505b600073ffffffffffffffffffffffffffffffffffffffff168373ffffffffffffffffffffffffffffffffffffffff1614156110d9576040517f08c379a00000000000000000000000000000000000000000000000000000000081526004016110d0906130f0565b60405180910390fd5b600073ffffffffffffffffffffffffffffffffffffffff168273ffffffffffffffffffffffffffffffffffffffff161415611149576040517f08c379a0000000000000000000000000000000000000000000000000000000008152600401611140906131b0565b60405180910390fd5b82609760006101000a81548173ffffffffffffffffffffffffffffffffffffffff021916908373ffffffffffffffffffffffffffffffffffffffff160217905550611192611fdc565b61119f6000801b836120cd565b609760009054906101000a900473ffffffffffffffffffffffffffffffffffffffff1673ffffffffffffffffffffffffffffffffffffffff167fdcd171a114b3defbe6183db035bfa13bf4bc50a165623de6bebb68dcad82fa6460405160405180910390a280156112255760008060016101000a81548160ff0219169083151502179055505b505050565b6000611237826003611cc4565b9050919050565b61126f7ff0303df69e2386d84f0d1b8823a00970e6506cfd9a69a69889045683cbd9e2a761126a611cbc565b611b87565b6112ae576040517f08c379a00000000000000000000000000000000000000000000000000000000081526004016112a590613150565b60405180910390fd5b60005b8151811015611429576113048282815181106112f6577f4e487b7100000000000000000000000000000000000000000000000000000000600052603260045260246000fd5b602002602001015184611cc4565b15611344576040517f08c379a000000000000000000000000000000000000000000000000000000000815260040161133b90613170565b60405180910390fd5b609760009054906101000a900473ffffffffffffffffffffffffffffffffffffffff1673ffffffffffffffffffffffffffffffffffffffff1663731133e98383815181106113bb577f4e487b7100000000000000000000000000000000000000000000000000000000600052603260045260246000fd5b60200260200101518560016040518463ffffffff1660e01b81526004016113e493929190612fce565b600060405180830381600087803b1580156113fe57600080fd5b505af1158015611412573d6000803e3d6000fd5b50505050808061142190613569565b9150506112b1565b505050565b61145f7ff0303df69e2386d84f0d1b8823a00970e6506cfd9a69a69889045683cbd9e2a761145a611cbc565b611b87565b61149e576040517f08c379a000000000000000000000000000000000000000000000000000000000815260040161149590613150565b60405180910390fd5b806098600084815260200190815260200160002090805190602001906114c5929190612660565b505050565b6114de6000801b6114d9611cbc565b611b87565b61151d576040517f08c379a0000000000000000000000000000000000000000000000000000000008152600401611514906130b0565b60405180910390fd5b600073ffffffffffffffffffffffffffffffffffffffff168173ffffffffffffffffffffffffffffffffffffffff16141561158d576040517f08c379a000000000000000000000000000000000000000000000000000000000815260040161158490613070565b60405180910390fd5b6115b77ff0303df69e2386d84f0d1b8823a00970e6506cfd9a69a69889045683cbd9e2a782610d1a565b50565b6115eb7ff0303df69e2386d84f0d1b8823a00970e6506cfd9a69a69889045683cbd9e2a76115e6611cbc565b611b87565b61162a576040517f08c379a000000000000000000000000000000000000000000000000000000000815260040161162190613150565b60405180910390fd5b60005b82518110156117a457611680838281518110611672577f4e487b7100000000000000000000000000000000000000000000000000000000600052603260045260246000fd5b602002602001015183611cc4565b6116bf576040517f08c379a00000000000000000000000000000000000000000000000000000000081526004016116b690613110565b60405180910390fd5b609760009054906101000a900473ffffffffffffffffffffffffffffffffffffffff1673ffffffffffffffffffffffffffffffffffffffff1663f5298aca848381518110611736577f4e487b7100000000000000000000000000000000000000000000000000000000600052603260045260246000fd5b60200260200101518460016040518463ffffffff1660e01b815260040161175f93929190612f4b565b600060405180830381600087803b15801561177957600080fd5b505af115801561178d573d6000803e3d6000fd5b50505050808061179c90613569565b91505061162d565b505050565b6117da7ff0303df69e2386d84f0d1b8823a00970e6506cfd9a69a69889045683cbd9e2a76117d5611cbc565b611b87565b611819576040517f08c379a000000000000000000000000000000000000000000000000000000000815260040161181090613150565b60405180910390fd5b60005b81518110156119945761186e828281518110611861577f4e487b7100000000000000000000000000000000000000000000000000000000600052603260045260246000fd5b6020026020010151610cae565b156118ae576040517f08c379a00000000000000000000000000000000000000000000000000000000081526004016118a5906131d0565b60405180910390fd5b609760009054906101000a900473ffffffffffffffffffffffffffffffffffffffff1673ffffffffffffffffffffffffffffffffffffffff1663731133e9838381518110611925577f4e487b7100000000000000000000000000000000000000000000000000000000600052603260045260246000fd5b6020026020010151600060016040518463ffffffff1660e01b815260040161194f93929190612fce565b600060405180830381600087803b15801561196957600080fd5b505af115801561197d573d6000803e3d6000fd5b50505050808061198c90613569565b91505061181c565b5050565b6119c97ff0303df69e2386d84f0d1b8823a00970e6506cfd9a69a69889045683cbd9e2a76119c4611cbc565b611b87565b611a08576040517f08c379a00000000000000000000000000000000000000000000000000000000081526004016119ff90613150565b60405180910390fd5b60005b8151811015611b8357611a5d828281518110611a50577f4e487b7100000000000000000000000000000000000000000000000000000000600052603260045260246000fd5b602002602001015161122a565b15611a9d576040517f08c379a0000000000000000000000000000000000000000000000000000000008152600401611a9490613250565b60405180910390fd5b609760009054906101000a900473ffffffffffffffffffffffffffffffffffffffff1673ffffffffffffffffffffffffffffffffffffffff1663731133e9838381518110611b14577f4e487b7100000000000000000000000000000000000000000000000000000000600052603260045260246000fd5b6020026020010151600360016040518463ffffffff1660e01b8152600401611b3e93929190612fce565b600060405180830381600087803b158015611b5857600080fd5b505af1158015611b6c573d6000803e3d6000fd5b505050508080611b7b90613569565b915050611a0b565b5050565b60006065600084815260200190815260200160002060000160008373ffffffffffffffffffffffffffffffffffffffff1673ffffffffffffffffffffffffffffffffffffffff16815260200190815260200160002060009054906101000a900460ff16905092915050565b6000801b81565b600381565b611c0782610cc2565b611c1881611c13611cbc565b611d7c565b611c228383611efa565b505050565b600081565b609760009054906101000a900473ffffffffffffffffffffffffffffffffffffffff1681565b60007f01ffc9a7000000000000000000000000000000000000000000000000000000007bffffffffffffffffffffffffffffffffffffffffffffffffffffffff1916827bffffffffffffffffffffffffffffffffffffffffffffffffffffffff1916149050919050565b600033905090565b600080609760009054906101000a900473ffffffffffffffffffffffffffffffffffffffff1673ffffffffffffffffffffffffffffffffffffffff1662fdd58e85856040518363ffffffff1660e01b8152600401611d23929190612f22565b60206040518083038186803b158015611d3b57600080fd5b505afa158015611d4f573d6000803e3d6000fd5b505050506040513d601f19601f82011682018060405250810190611d739190612a2e565b11905092915050565b611d868282611b87565b611e1557611dab8173ffffffffffffffffffffffffffffffffffffffff1660146120db565b611db98360001c60206120db565b604051602001611dca929190612ecd565b6040516020818303038152906040526040517f08c379a0000000000000000000000000000000000000000000000000000000008152600401611e0c919061304e565b60405180910390fd5b5050565b611e238282611b87565b611ef65760016065600084815260200190815260200160002060000160008373ffffffffffffffffffffffffffffffffffffffff1673ffffffffffffffffffffffffffffffffffffffff16815260200190815260200160002060006101000a81548160ff021916908315150217905550611e9b611cbc565b73ffffffffffffffffffffffffffffffffffffffff168173ffffffffffffffffffffffffffffffffffffffff16837f2f8788117e7eff1d82e926ec794901d17c78024a50270940304540a733656f0d60405160405180910390a45b5050565b611f048282611b87565b15611fd85760006065600084815260200190815260200160002060000160008373ffffffffffffffffffffffffffffffffffffffff1673ffffffffffffffffffffffffffffffffffffffff16815260200190815260200160002060006101000a81548160ff021916908315150217905550611f7d611cbc565b73ffffffffffffffffffffffffffffffffffffffff168173ffffffffffffffffffffffffffffffffffffffff16837ff6391f5c32d9c69d2a47ea670b442974b53935d1edc7fd64eb21e047a839171b60405160405180910390a45b5050565b600060019054906101000a900460ff1680612002575060008054906101000a900460ff16155b612041576040517f08c379a000000000000000000000000000000000000000000000000000000000815260040161203890613130565b60405180910390fd5b60008060019054906101000a900460ff161590508015612091576001600060016101000a81548160ff02191690831515021790555060016000806101000a81548160ff0219169083151502179055505b6120996123d5565b6120a16124ae565b6120a9612587565b80156120ca5760008060016101000a81548160ff0219169083151502179055505b50565b6120d78282611e19565b5050565b6060600060028360026120ee91906133b0565b6120f8919061335a565b67ffffffffffffffff811115612137577f4e487b7100000000000000000000000000000000000000000000000000000000600052604160045260246000fd5b6040519080825280601f01601f1916602001820160405280156121695781602001600182028036833780820191505090505b5090507f3000000000000000000000000000000000000000000000000000000000000000816000815181106121c7577f4e487b7100000000000000000000000000000000000000000000000000000000600052603260045260246000fd5b60200101907effffffffffffffffffffffffffffffffffffffffffffffffffffffffffffff1916908160001a9053507f780000000000000000000000000000000000000000000000000000000000000081600181518110612251577f4e487b7100000000000000000000000000000000000000000000000000000000600052603260045260246000fd5b60200101907effffffffffffffffffffffffffffffffffffffffffffffffffffffffffffff1916908160001a9053506000600184600261229191906133b0565b61229b919061335a565b90505b6001811115612387577f3031323334353637383961626364656600000000000000000000000000000000600f861660108110612303577f4e487b7100000000000000000000000000000000000000000000000000000000600052603260045260246000fd5b1a60f81b828281518110612340577f4e487b7100000000000000000000000000000000000000000000000000000000600052603260045260246000fd5b60200101907effffffffffffffffffffffffffffffffffffffffffffffffffffffffffffff1916908160001a905350600485901c945080612380906134dc565b905061229e565b50600084146123cb576040517f08c379a00000000000000000000000000000000000000000000000000000000081526004016123c290613090565b60405180910390fd5b8091505092915050565b600060019054906101000a900460ff16806123fb575060008054906101000a900460ff16155b61243a576040517f08c379a000000000000000000000000000000000000000000000000000000000815260040161243190613130565b60405180910390fd5b60008060019054906101000a900460ff16159050801561248a576001600060016101000a81548160ff02191690831515021790555060016000806101000a81548160ff0219169083151502179055505b80156124ab5760008060016101000a81548160ff0219169083151502179055505b50565b600060019054906101000a900460ff16806124d4575060008054906101000a900460ff16155b612513576040517f08c379a000000000000000000000000000000000000000000000000000000000815260040161250a90613130565b60405180910390fd5b60008060019054906101000a900460ff161590508015612563576001600060016101000a81548160ff02191690831515021790555060016000806101000a81548160ff0219169083151502179055505b80156125845760008060016101000a81548160ff0219169083151502179055505b50565b600060019054906101000a900460ff16806125ad575060008054906101000a900460ff16155b6125ec576040517f08c379a00000000000000000000000000000000000000000000000000000000081526004016125e390613130565b60405180910390fd5b60008060019054906101000a900460ff16159050801561263c576001600060016101000a81548160ff02191690831515021790555060016000806101000a81548160ff0219169083151502179055505b801561265d5760008060016101000a81548160ff0219169083151502179055505b50565b82805461266c90613506565b90600052602060002090601f01602090048101928261268e57600085556126d5565b82601f106126a757805160ff19168380011785556126d5565b828001600101855582156126d5579182015b828111156126d45782518255916020019190600101906126b9565b5b5090506126e291906126e6565b5090565b5b808211156126ff5760008160009055506001016126e7565b5090565b6000612716612711846132b0565b61328b565b9050808382526020820190508285602086028201111561273557600080fd5b60005b85811015612765578161274b88826127ad565b845260208401935060208301925050600181019050612738565b5050509392505050565b600061278261277d846132dc565b61328b565b90508281526020810184848401111561279a57600080fd5b6127a584828561349a565b509392505050565b6000813590506127bc81613afd565b92915050565b600082601f8301126127d357600080fd5b81356127e3848260208601612703565b91505092915050565b6000813590506127fb81613b14565b92915050565b60008135905061281081613b2b565b92915050565b600082601f83011261282757600080fd5b813561283784826020860161276f565b91505092915050565b60008135905061284f81613b42565b92915050565b60008151905061286481613b42565b92915050565b60006020828403121561287c57600080fd5b600061288a848285016127ad565b91505092915050565b600080604083850312156128a657600080fd5b60006128b4858286016127ad565b92505060206128c5858286016127ad565b9150509250929050565b600080604083850312156128e257600080fd5b60006128f0858286016127ad565b925050602061290185828601612840565b9150509250929050565b60006020828403121561291d57600080fd5b600082013567ffffffffffffffff81111561293757600080fd5b612943848285016127c2565b91505092915050565b6000806040838503121561295f57600080fd5b600083013567ffffffffffffffff81111561297957600080fd5b612985858286016127c2565b925050602061299685828601612840565b9150509250929050565b6000602082840312156129b257600080fd5b60006129c0848285016127ec565b91505092915050565b600080604083850312156129dc57600080fd5b60006129ea858286016127ec565b92505060206129fb858286016127ad565b9150509250929050565b600060208284031215612a1757600080fd5b6000612a2584828501612801565b91505092915050565b600060208284031215612a4057600080fd5b6000612a4e84828501612855565b91505092915050565b60008060408385031215612a6a57600080fd5b6000612a7885828601612840565b925050602083013567ffffffffffffffff811115612a9557600080fd5b612aa1858286016127c2565b9150509250929050565b60008060408385031215612abe57600080fd5b6000612acc85828601612840565b925050602083013567ffffffffffffffff811115612ae957600080fd5b612af585828601612816565b9150509250929050565b612b088161340a565b82525050565b612b178161341c565b82525050565b612b2681613428565b82525050565b60008154612b3981613506565b612b43818661332d565b94506001821660008114612b5e5760018114612b7057612ba3565b60ff1983168652602086019350612ba3565b612b798561330d565b60005b83811015612b9b57815481890152600182019150602081019050612b7c565b808801955050505b50505092915050565b612bb581613488565b82525050565b6000612bc682613322565b612bd0818561333e565b9350612be08185602086016134a9565b612be98161363f565b840191505092915050565b6000612bff82613322565b612c09818561334f565b9350612c198185602086016134a9565b80840191505092915050565b6000612c3260258361333e565b9150612c3d82613650565b604082019050919050565b6000612c5560208361333e565b9150612c608261369f565b602082019050919050565b6000612c78601c8361333e565b9150612c83826136c8565b602082019050919050565b6000612c9b60348361333e565b9150612ca6826136f1565b604082019050919050565b6000612cbe60248361333e565b9150612cc982613740565b604082019050919050565b6000612ce160368361333e565b9150612cec8261378f565b604082019050919050565b6000612d04602e8361333e565b9150612d0f826137de565b604082019050919050565b6000612d2760208361333e565b9150612d328261382d565b602082019050919050565b6000612d4a60308361333e565b9150612d5582613856565b604082019050919050565b6000612d6d60348361333e565b9150612d78826138a5565b604082019050919050565b6000612d90601a8361333e565b9150612d9b826138f4565b602082019050919050565b6000612db360008361332d565b9150612dbe8261391d565b600082019050919050565b6000612dd660178361334f565b9150612de182613920565b601782019050919050565b6000612df9602f8361333e565b9150612e0482613949565b604082019050919050565b6000612e1c60358361333e565b9150612e2782613998565b604082019050919050565b6000612e3f60368361333e565b9150612e4a826139e7565b604082019050919050565b6000612e6260118361334f565b9150612e6d82613a36565b601182019050919050565b6000612e85602f8361333e565b9150612e9082613a5f565b604082019050919050565b6000612ea8602e8361333e565b9150612eb382613aae565b604082019050919050565b612ec78161347e565b82525050565b6000612ed882612dc9565b9150612ee48285612bf4565b9150612eef82612e55565b9150612efb8284612bf4565b91508190509392505050565b6000602082019050612f1c6000830184612aff565b92915050565b6000604082019050612f376000830185612aff565b612f446020830184612ebe565b9392505050565b6000606082019050612f606000830186612aff565b612f6d6020830185612ebe565b612f7a6040830184612bac565b949350505050565b6000608082019050612f976000830187612aff565b612fa46020830186612ebe565b612fb16040830185612bac565b8181036060830152612fc38184612b2c565b905095945050505050565b6000608082019050612fe36000830186612aff565b612ff06020830185612ebe565b612ffd6040830184612bac565b818103606083015261300e81612da6565b9050949350505050565b600060208201905061302d6000830184612b0e565b92915050565b60006020820190506130486000830184612b1d565b92915050565b600060208201905081810360008301526130688184612bbb565b905092915050565b6000602082019050818103600083015261308981612c25565b9050919050565b600060208201905081810360008301526130a981612c48565b9050919050565b600060208201905081810360008301526130c981612c6b565b9050919050565b600060208201905081810360008301526130e981612c8e565b9050919050565b6000602082019050818103600083015261310981612cb1565b9050919050565b6000602082019050818103600083015261312981612cd4565b9050919050565b6000602082019050818103600083015261314981612cf7565b9050919050565b6000602082019050818103600083015261316981612d1a565b9050919050565b6000602082019050818103600083015261318981612d3d565b9050919050565b600060208201905081810360008301526131a981612d60565b9050919050565b600060208201905081810360008301526131c981612d83565b9050919050565b600060208201905081810360008301526131e981612dec565b9050919050565b6000602082019050818103600083015261320981612e0f565b9050919050565b6000602082019050818103600083015261322981612e32565b9050919050565b6000602082019050818103600083015261324981612e78565b9050919050565b6000602082019050818103600083015261326981612e9b565b9050919050565b60006020820190506132856000830184612ebe565b92915050565b60006132956132a6565b90506132a18282613538565b919050565b6000604051905090565b600067ffffffffffffffff8211156132cb576132ca613610565b5b602082029050602081019050919050565b600067ffffffffffffffff8211156132f7576132f6613610565b5b6133008261363f565b9050602081019050919050565b60008190508160005260206000209050919050565b600081519050919050565b600082825260208201905092915050565b600082825260208201905092915050565b600081905092915050565b60006133658261347e565b91506133708361347e565b9250827fffffffffffffffffffffffffffffffffffffffffffffffffffffffffffffffff038211156133a5576133a46135b2565b5b828201905092915050565b60006133bb8261347e565b91506133c68361347e565b9250817fffffffffffffffffffffffffffffffffffffffffffffffffffffffffffffffff04831182151516156133ff576133fe6135b2565b5b828202905092915050565b60006134158261345e565b9050919050565b60008115159050919050565b6000819050919050565b60007fffffffff0000000000000000000000000000000000000000000000000000000082169050919050565b600073ffffffffffffffffffffffffffffffffffffffff82169050919050565b6000819050919050565b60006134938261347e565b9050919050565b82818337600083830152505050565b60005b838110156134c75780820151818401526020810190506134ac565b838111156134d6576000848401525b50505050565b60006134e78261347e565b915060008214156134fb576134fa6135b2565b5b600182039050919050565b6000600282049050600182168061351e57607f821691505b60208210811415613532576135316135e1565b5b50919050565b6135418261363f565b810181811067ffffffffffffffff821117156135605761355f613610565b5b80604052505050565b60006135748261347e565b91507fffffffffffffffffffffffffffffffffffffffffffffffffffffffffffffffff8214156135a7576135a66135b2565b5b600182019050919050565b7f4e487b7100000000000000000000000000000000000000000000000000000000600052601160045260246000fd5b7f4e487b7100000000000000000000000000000000000000000000000000000000600052602260045260246000fd5b7f4e487b7100000000000000000000000000000000000000000000000000000000600052604160045260246000fd5b6000601f19601f8301169050919050565b7f5f7065726d697373696f6e7341646d696e20697320746865207a65726f20616460008201527f6472657373000000000000000000000000000000000000000000000000000000602082015250565b7f537472696e67733a20686578206c656e67746820696e73756666696369656e74600082015250565b7f6d75737420686176652064656661756c742061646d696e20726f6c6500000000600082015250565b7f5065726d697373696f6e4d616e616765723a2041646472657373206973206e6f60008201527f742063757272656e746c792072656a6563746564000000000000000000000000602082015250565b7f5f7065726d697373696f6e4974656d7320697320746865207a65726f2061646460008201527f7265737300000000000000000000000000000000000000000000000000000000602082015250565b7f5065726d697373696f6e4d616e616765723a204164647265737320646f65736e60008201527f277420686173205469657220312061737369676e656400000000000000000000602082015250565b7f496e697469616c697a61626c653a20636f6e747261637420697320616c72656160008201527f647920696e697469616c697a6564000000000000000000000000000000000000602082015250565b7f6d7573742068617665207065726d697373696f6e732061646d696e20726f6c65600082015250565b7f5065726d697373696f6e4d616e616765723a204163636f756e7420697320617360008201527f7369676e65642077697468206974656d00000000000000000000000000000000602082015250565b7f5065726d697373696f6e4d616e616765723a204163636f756e74206973206e6f60008201527f742061737369676e65642077697468206974656d000000000000000000000000602082015250565b7f5f61646d696e20697320746865207a65726f2061646472657373000000000000600082015250565b50565b7f416363657373436f6e74726f6c3a206163636f756e7420000000000000000000600082015250565b7f5065726d697373696f6e4d616e616765723a204164647265737320697320616c60008201527f72656164792073757370656e6465640000000000000000000000000000000000602082015250565b7f5065726d697373696f6e4d616e616765723a2041646472657373206973206e6f60008201527f742063757272656e746c792073757370656e6465640000000000000000000000602082015250565b7f5065726d697373696f6e4d616e616765723a204164647265737320616c72656160008201527f647920686173205469657220312061737369676e656400000000000000000000602082015250565b7f206973206d697373696e6720726f6c6520000000000000000000000000000000600082015250565b7f416363657373436f6e74726f6c3a2063616e206f6e6c792072656e6f756e636560008201527f20726f6c657320666f722073656c660000000000000000000000000000000000602082015250565b7f5065726d697373696f6e4d616e616765723a204164647265737320697320616c60008201527f72656164792072656a6563746564000000000000000000000000000000000000602082015250565b613b068161340a565b8114613b1157600080fd5b50565b613b1d81613428565b8114613b2857600080fd5b50565b613b3481613432565b8114613b3f57600080fd5b50565b613b4b8161347e565b8114613b5657600080fd5b5056fea2646970667358221220ea5a1b6c19edead801d8c9f3e1fecaf2ed90d4de603fe12a8134994677b4216264736f6c63430008020033",
  "linkReferences": {},
  "deployedLinkReferences": {}
}