{
  "_format": "hh-sol-artifact-1",
  "contractName": "RocketModel",
  "sourceName": "contracts/model/RocketModel.sol",
  "abi": [
    {
      "anonymous": false,
      "inputs": [
        {
          "indexed": false,
          "internalType": "bytes32",
          "name": "poolId",
          "type": "bytes32"
        },
        {
          "indexed": false,
          "internalType": "uint256",
          "name": "poolTargetAmount",
          "type": "uint256"
        },
        {
          "indexed": false,
          "internalType": "address",
          "name": "receiver",
          "type": "address"
        }
      ],
      "name": "CreatedPool",
      "type": "event"
    },
    {
      "anonymous": false,
      "inputs": [
        {
          "indexed": false,
          "internalType": "bytes32",
          "name": "poolId",
          "type": "bytes32"
        },
        {
          "indexed": false,
          "internalType": "address",
          "name": "contributor",
          "type": "address"
        },
        {
          "indexed": false,
          "internalType": "uint256",
          "name": "amount",
          "type": "uint256"
        },
        {
          "indexed": false,
          "internalType": "uint256",
          "name": "contributionId",
          "type": "uint256"
        }
      ],
      "name": "contributed",
      "type": "event"
    },
    {
      "inputs": [],
      "name": "Rocket_Admin_ROLE",
      "outputs": [
        {
          "internalType": "bytes32",
          "name": "",
          "type": "bytes32"
        }
      ],
      "stateMutability": "view",
      "type": "function"
    },
    {
      "inputs": [
        {
          "internalType": "bytes32",
          "name": "",
          "type": "bytes32"
        }
      ],
      "name": "claimCalendars",
      "outputs": [
        {
          "internalType": "uint256",
          "name": "firstInterval",
          "type": "uint256"
        },
        {
          "internalType": "uint256",
          "name": "nextInterval",
          "type": "uint256"
        },
        {
          "internalType": "uint256",
          "name": "finalInterval",
          "type": "uint256"
        },
        {
          "internalType": "uint256",
          "name": "depoistBatch",
          "type": "uint256"
        },
        {
          "internalType": "uint256",
          "name": "claimRate",
          "type": "uint256"
        },
        {
          "internalType": "uint256",
          "name": "duration",
          "type": "uint256"
        }
      ],
      "stateMutability": "view",
      "type": "function"
    },
    {
      "inputs": [
        {
          "internalType": "uint256",
          "name": "",
          "type": "uint256"
        }
      ],
      "name": "contributions",
      "outputs": [
        {
          "internalType": "bytes32",
          "name": "poolId",
          "type": "bytes32"
        },
        {
          "internalType": "address",
          "name": "contributor",
          "type": "address"
        },
        {
          "internalType": "uint256",
          "name": "amountToReceive",
          "type": "uint256"
        },
        {
          "internalType": "uint256",
          "name": "amountContributed",
          "type": "uint256"
        },
        {
          "internalType": "uint256",
          "name": "lastWithdrawal",
          "type": "uint256"
        },
        {
          "internalType": "uint256",
          "name": "nextWithdrawal",
          "type": "uint256"
        },
        {
          "internalType": "uint256",
          "name": "totalWithdrwan",
          "type": "uint256"
        },
        {
          "internalType": "uint256",
          "name": "withdrawalBatch",
          "type": "uint256"
        }
      ],
      "stateMutability": "view",
      "type": "function"
    },
    {
      "inputs": [
        {
          "internalType": "address",
          "name": "",
          "type": "address"
        },
        {
          "internalType": "uint256",
          "name": "",
          "type": "uint256"
        }
      ],
      "name": "myContributions",
      "outputs": [
        {
          "internalType": "bytes32",
          "name": "poolId",
          "type": "bytes32"
        },
        {
          "internalType": "address",
          "name": "contributor",
          "type": "address"
        },
        {
          "internalType": "uint256",
          "name": "amountToReceive",
          "type": "uint256"
        },
        {
          "internalType": "uint256",
          "name": "amountContributed",
          "type": "uint256"
        },
        {
          "internalType": "uint256",
          "name": "lastWithdrawal",
          "type": "uint256"
        },
        {
          "internalType": "uint256",
          "name": "nextWithdrawal",
          "type": "uint256"
        },
        {
          "internalType": "uint256",
          "name": "totalWithdrwan",
          "type": "uint256"
        },
        {
          "internalType": "uint256",
          "name": "withdrawalBatch",
          "type": "uint256"
        }
      ],
      "stateMutability": "view",
      "type": "function"
    },
    {
      "inputs": [
        {
          "internalType": "bytes32",
          "name": "",
          "type": "bytes32"
        }
      ],
      "name": "pools",
      "outputs": [
        {
          "internalType": "uint256",
          "name": "tokenClaimAmount",
          "type": "uint256"
        },
        {
          "internalType": "uint256",
          "name": "totalClaimToken",
          "type": "uint256"
        },
        {
          "internalType": "uint256",
          "name": "targetAmount",
          "type": "uint256"
        },
        {
          "internalType": "uint256",
          "name": "expiryTime",
          "type": "uint256"
        },
        {
          "internalType": "uint256",
          "name": "amountContributed",
          "type": "uint256"
        },
        {
          "internalType": "address",
          "name": "poolRewardAddress",
          "type": "address"
        },
        {
          "internalType": "uint256",
          "name": "price",
          "type": "uint256"
        },
        {
          "internalType": "bool",
          "name": "isComplete",
          "type": "bool"
        },
        {
          "internalType": "bool",
          "name": "canClaimToken",
          "type": "bool"
        },
        {
          "internalType": "address",
          "name": "receiver",
          "type": "address"
        },
        {
          "internalType": "bytes32",
          "name": "poolAddress",
          "type": "bytes32"
        }
      ],
      "stateMutability": "view",
      "type": "function"
    }
  ],
  "bytecode": "0x608060405234801561001057600080fd5b506106d3806100206000396000f3fe608060405234801561001057600080fd5b50600436106100575760003560e01c80631cee07001461005c578063853f074a146100935780639c30aefa146100c8578063aa628108146100ff578063b5217bb41461011d575b600080fd5b610076600480360381019061007191906103fc565b610157565b60405161008a98979695949392919061047c565b60405180910390f35b6100ad60048036038101906100a891906103d3565b6101bf565b6040516100bf969594939291906105a5565b60405180910390f35b6100e260048036038101906100dd9190610397565b6101fb565b6040516100f698979695949392919061047c565b60405180910390f35b610107610280565b6040516101149190610461565b60405180910390f35b610137600480360381019061013291906103d3565b6102a4565b60405161014e9b9a999897969594939291906104fa565b60405180910390f35b60036020528060005260406000206000915090508060000154908060010160009054906101000a900473ffffffffffffffffffffffffffffffffffffffff16908060020154908060030154908060040154908060050154908060060154908060070154905088565b60046020528060005260406000206000915090508060000154908060010154908060020154908060030154908060040154908060050154905086565b6005602052816000526040600020818154811061021757600080fd5b9060005260206000209060080201600091509150508060000154908060010160009054906101000a900473ffffffffffffffffffffffffffffffffffffffff16908060020154908060030154908060040154908060050154908060060154908060070154905088565b7fb72b3a91fc43cfd55c7c0304b984a2c2cc43d00fbe824ecb3d7ca6a0b1abd1bb81565b60026020528060005260406000206000915090508060000154908060010154908060020154908060030154908060040154908060050160009054906101000a900473ffffffffffffffffffffffffffffffffffffffff16908060060154908060080160009054906101000a900460ff16908060080160019054906101000a900460ff16908060080160029054906101000a900473ffffffffffffffffffffffffffffffffffffffff1690806009015490508b565b60008135905061036781610658565b92915050565b60008135905061037c8161066f565b92915050565b60008135905061039181610686565b92915050565b600080604083850312156103aa57600080fd5b60006103b885828601610358565b92505060206103c985828601610382565b9150509250929050565b6000602082840312156103e557600080fd5b60006103f38482850161036d565b91505092915050565b60006020828403121561040e57600080fd5b600061041c84828501610382565b91505092915050565b61042e81610606565b82525050565b61043d81610618565b82525050565b61044c81610624565b82525050565b61045b8161064e565b82525050565b60006020820190506104766000830184610443565b92915050565b600061010082019050610492600083018b610443565b61049f602083018a610425565b6104ac6040830189610452565b6104b96060830188610452565b6104c66080830187610452565b6104d360a0830186610452565b6104e060c0830185610452565b6104ed60e0830184610452565b9998505050505050505050565b600061016082019050610510600083018e610452565b61051d602083018d610452565b61052a604083018c610452565b610537606083018b610452565b610544608083018a610452565b61055160a0830189610425565b61055e60c0830188610452565b61056b60e0830187610434565b610579610100830186610434565b610587610120830185610425565b610595610140830184610443565b9c9b505050505050505050505050565b600060c0820190506105ba6000830189610452565b6105c76020830188610452565b6105d46040830187610452565b6105e16060830186610452565b6105ee6080830185610452565b6105fb60a0830184610452565b979650505050505050565b60006106118261062e565b9050919050565b60008115159050919050565b6000819050919050565b600073ffffffffffffffffffffffffffffffffffffffff82169050919050565b6000819050919050565b61066181610606565b811461066c57600080fd5b50565b61067881610624565b811461068357600080fd5b50565b61068f8161064e565b811461069a57600080fd5b5056fea264697066735822122055e5083aac2edcaf1ffada2a55de2ca5342fd44dd35da9bcd6e3c580ce80204b64736f6c63430008020033",
  "linkReferences": {},
  "deployedLinkReferences": {}
}