{
  "contracts/model/RocketModel.sol": {
    "RocketModel": {
      "abi": [
        {
          "anonymous": false,
          "inputs": [
            {
              "indexed": false,
              "internalType": "bytes32",
              "name": "poolId",
              "type": "bytes32"
            },
            {
              "indexed": false,
              "internalType": "uint256",
              "name": "poolTargetAmount",
              "type": "uint256"
            },
            {
              "indexed": false,
              "internalType": "address",
              "name": "receiver",
              "type": "address"
            }
          ],
          "name": "CreatedPool",
          "type": "event"
        },
        {
          "anonymous": false,
          "inputs": [
            {
              "indexed": false,
              "internalType": "bytes32",
              "name": "poolId",
              "type": "bytes32"
            },
            {
              "indexed": false,
              "internalType": "address",
              "name": "contributor",
              "type": "address"
            },
            {
              "indexed": false,
              "internalType": "uint256",
              "name": "amount",
              "type": "uint256"
            },
            {
              "indexed": false,
              "internalType": "uint256",
              "name": "contributionId",
              "type": "uint256"
            }
          ],
          "name": "contributed",
          "type": "event"
        },
        {
          "inputs": [],
          "name": "Rocket_Admin_ROLE",
          "outputs": [
            {
              "internalType": "bytes32",
              "name": "",
              "type": "bytes32"
            }
          ],
          "stateMutability": "view",
          "type": "function"
        },
        {
          "inputs": [
            {
              "internalType": "bytes32",
              "name": "",
              "type": "bytes32"
            }
          ],
          "name": "claimCalendars",
          "outputs": [
            {
              "internalType": "uint256",
              "name": "firstInterval",
              "type": "uint256"
            },
            {
              "internalType": "uint256",
              "name": "nextInterval",
              "type": "uint256"
            },
            {
              "internalType": "uint256",
              "name": "finalInterval",
              "type": "uint256"
            },
            {
              "internalType": "uint256",
              "name": "depoistBatch",
              "type": "uint256"
            },
            {
              "internalType": "uint256",
              "name": "claimRate",
              "type": "uint256"
            },
            {
              "internalType": "uint256",
              "name": "duration",
              "type": "uint256"
            }
          ],
          "stateMutability": "view",
          "type": "function"
        },
        {
          "inputs": [
            {
              "internalType": "uint256",
              "name": "",
              "type": "uint256"
            }
          ],
          "name": "contributions",
          "outputs": [
            {
              "internalType": "bytes32",
              "name": "poolId",
              "type": "bytes32"
            },
            {
              "internalType": "address",
              "name": "contributor",
              "type": "address"
            },
            {
              "internalType": "uint256",
              "name": "amountToReceive",
              "type": "uint256"
            },
            {
              "internalType": "uint256",
              "name": "amountContributed",
              "type": "uint256"
            },
            {
              "internalType": "uint256",
              "name": "lastWithdrawal",
              "type": "uint256"
            },
            {
              "internalType": "uint256",
              "name": "nextWithdrawal",
              "type": "uint256"
            },
            {
              "internalType": "uint256",
              "name": "totalWithdrwan",
              "type": "uint256"
            },
            {
              "internalType": "uint256",
              "name": "withdrawalBatch",
              "type": "uint256"
            }
          ],
          "stateMutability": "view",
          "type": "function"
        },
        {
          "inputs": [
            {
              "internalType": "address",
              "name": "",
              "type": "address"
            },
            {
              "internalType": "uint256",
              "name": "",
              "type": "uint256"
            }
          ],
          "name": "myContributions",
          "outputs": [
            {
              "internalType": "bytes32",
              "name": "poolId",
              "type": "bytes32"
            },
            {
              "internalType": "address",
              "name": "contributor",
              "type": "address"
            },
            {
              "internalType": "uint256",
              "name": "amountToReceive",
              "type": "uint256"
            },
            {
              "internalType": "uint256",
              "name": "amountContributed",
              "type": "uint256"
            },
            {
              "internalType": "uint256",
              "name": "lastWithdrawal",
              "type": "uint256"
            },
            {
              "internalType": "uint256",
              "name": "nextWithdrawal",
              "type": "uint256"
            },
            {
              "internalType": "uint256",
              "name": "totalWithdrwan",
              "type": "uint256"
            },
            {
              "internalType": "uint256",
              "name": "withdrawalBatch",
              "type": "uint256"
            }
          ],
          "stateMutability": "view",
          "type": "function"
        },
        {
          "inputs": [
            {
              "internalType": "bytes32",
              "name": "",
              "type": "bytes32"
            }
          ],
          "name": "pools",
          "outputs": [
            {
              "internalType": "uint256",
              "name": "tokenClaimAmount",
              "type": "uint256"
            },
            {
              "internalType": "uint256",
              "name": "totalClaimToken",
              "type": "uint256"
            },
            {
              "internalType": "uint256",
              "name": "targetAmount",
              "type": "uint256"
            },
            {
              "internalType": "uint256",
              "name": "expiryTime",
              "type": "uint256"
            },
            {
              "internalType": "uint256",
              "name": "amountContributed",
              "type": "uint256"
            },
            {
              "internalType": "address",
              "name": "poolRewardAddress",
              "type": "address"
            },
            {
              "internalType": "uint256",
              "name": "price",
              "type": "uint256"
            },
            {
              "internalType": "bool",
              "name": "isComplete",
              "type": "bool"
            },
            {
              "internalType": "bool",
              "name": "canClaimToken",
              "type": "bool"
            },
            {
              "internalType": "address",
              "name": "receiver",
              "type": "address"
            },
            {
              "internalType": "bytes32",
              "name": "poolAddress",
              "type": "bytes32"
            }
          ],
          "stateMutability": "view",
          "type": "function"
        }
      ],
      "evm": {
        "bytecode": {
          "linkReferences": {},
          "object": "608060405234801561001057600080fd5b506106d3806100206000396000f3fe608060405234801561001057600080fd5b50600436106100575760003560e01c80631cee07001461005c578063853f074a146100935780639c30aefa146100c8578063aa628108146100ff578063b5217bb41461011d575b600080fd5b610076600480360381019061007191906103fc565b610157565b60405161008a98979695949392919061047c565b60405180910390f35b6100ad60048036038101906100a891906103d3565b6101bf565b6040516100bf969594939291906105a5565b60405180910390f35b6100e260048036038101906100dd9190610397565b6101fb565b6040516100f698979695949392919061047c565b60405180910390f35b610107610280565b6040516101149190610461565b60405180910390f35b610137600480360381019061013291906103d3565b6102a4565b60405161014e9b9a999897969594939291906104fa565b60405180910390f35b60036020528060005260406000206000915090508060000154908060010160009054906101000a900473ffffffffffffffffffffffffffffffffffffffff16908060020154908060030154908060040154908060050154908060060154908060070154905088565b60046020528060005260406000206000915090508060000154908060010154908060020154908060030154908060040154908060050154905086565b6005602052816000526040600020818154811061021757600080fd5b9060005260206000209060080201600091509150508060000154908060010160009054906101000a900473ffffffffffffffffffffffffffffffffffffffff16908060020154908060030154908060040154908060050154908060060154908060070154905088565b7fb72b3a91fc43cfd55c7c0304b984a2c2cc43d00fbe824ecb3d7ca6a0b1abd1bb81565b60026020528060005260406000206000915090508060000154908060010154908060020154908060030154908060040154908060050160009054906101000a900473ffffffffffffffffffffffffffffffffffffffff16908060060154908060080160009054906101000a900460ff16908060080160019054906101000a900460ff16908060080160029054906101000a900473ffffffffffffffffffffffffffffffffffffffff1690806009015490508b565b60008135905061036781610658565b92915050565b60008135905061037c8161066f565b92915050565b60008135905061039181610686565b92915050565b600080604083850312156103aa57600080fd5b60006103b885828601610358565b92505060206103c985828601610382565b9150509250929050565b6000602082840312156103e557600080fd5b60006103f38482850161036d565b91505092915050565b60006020828403121561040e57600080fd5b600061041c84828501610382565b91505092915050565b61042e81610606565b82525050565b61043d81610618565b82525050565b61044c81610624565b82525050565b61045b8161064e565b82525050565b60006020820190506104766000830184610443565b92915050565b600061010082019050610492600083018b610443565b61049f602083018a610425565b6104ac6040830189610452565b6104b96060830188610452565b6104c66080830187610452565b6104d360a0830186610452565b6104e060c0830185610452565b6104ed60e0830184610452565b9998505050505050505050565b600061016082019050610510600083018e610452565b61051d602083018d610452565b61052a604083018c610452565b610537606083018b610452565b610544608083018a610452565b61055160a0830189610425565b61055e60c0830188610452565b61056b60e0830187610434565b610579610100830186610434565b610587610120830185610425565b610595610140830184610443565b9c9b505050505050505050505050565b600060c0820190506105ba6000830189610452565b6105c76020830188610452565b6105d46040830187610452565b6105e16060830186610452565b6105ee6080830185610452565b6105fb60a0830184610452565b979650505050505050565b60006106118261062e565b9050919050565b60008115159050919050565b6000819050919050565b600073ffffffffffffffffffffffffffffffffffffffff82169050919050565b6000819050919050565b61066181610606565b811461066c57600080fd5b50565b61067881610624565b811461068357600080fd5b50565b61068f8161064e565b811461069a57600080fd5b5056fea264697066735822122055e5083aac2edcaf1ffada2a55de2ca5342fd44dd35da9bcd6e3c580ce80204b64736f6c63430008020033",
          "opcodes": "PUSH1 0x80 PUSH1 0x40 MSTORE CALLVALUE DUP1 ISZERO PUSH2 0x10 JUMPI PUSH1 0x0 DUP1 REVERT JUMPDEST POP PUSH2 0x6D3 DUP1 PUSH2 0x20 PUSH1 0x0 CODECOPY PUSH1 0x0 RETURN INVALID PUSH1 0x80 PUSH1 0x40 MSTORE CALLVALUE DUP1 ISZERO PUSH2 0x10 JUMPI PUSH1 0x0 DUP1 REVERT JUMPDEST POP PUSH1 0x4 CALLDATASIZE LT PUSH2 0x57 JUMPI PUSH1 0x0 CALLDATALOAD PUSH1 0xE0 SHR DUP1 PUSH4 0x1CEE0700 EQ PUSH2 0x5C JUMPI DUP1 PUSH4 0x853F074A EQ PUSH2 0x93 JUMPI DUP1 PUSH4 0x9C30AEFA EQ PUSH2 0xC8 JUMPI DUP1 PUSH4 0xAA628108 EQ PUSH2 0xFF JUMPI DUP1 PUSH4 0xB5217BB4 EQ PUSH2 0x11D JUMPI JUMPDEST PUSH1 0x0 DUP1 REVERT JUMPDEST PUSH2 0x76 PUSH1 0x4 DUP1 CALLDATASIZE SUB DUP2 ADD SWAP1 PUSH2 0x71 SWAP2 SWAP1 PUSH2 0x3FC JUMP JUMPDEST PUSH2 0x157 JUMP JUMPDEST PUSH1 0x40 MLOAD PUSH2 0x8A SWAP9 SWAP8 SWAP7 SWAP6 SWAP5 SWAP4 SWAP3 SWAP2 SWAP1 PUSH2 0x47C JUMP JUMPDEST PUSH1 0x40 MLOAD DUP1 SWAP2 SUB SWAP1 RETURN JUMPDEST PUSH2 0xAD PUSH1 0x4 DUP1 CALLDATASIZE SUB DUP2 ADD SWAP1 PUSH2 0xA8 SWAP2 SWAP1 PUSH2 0x3D3 JUMP JUMPDEST PUSH2 0x1BF JUMP JUMPDEST PUSH1 0x40 MLOAD PUSH2 0xBF SWAP7 SWAP6 SWAP5 SWAP4 SWAP3 SWAP2 SWAP1 PUSH2 0x5A5 JUMP JUMPDEST PUSH1 0x40 MLOAD DUP1 SWAP2 SUB SWAP1 RETURN JUMPDEST PUSH2 0xE2 PUSH1 0x4 DUP1 CALLDATASIZE SUB DUP2 ADD SWAP1 PUSH2 0xDD SWAP2 SWAP1 PUSH2 0x397 JUMP JUMPDEST PUSH2 0x1FB JUMP JUMPDEST PUSH1 0x40 MLOAD PUSH2 0xF6 SWAP9 SWAP8 SWAP7 SWAP6 SWAP5 SWAP4 SWAP3 SWAP2 SWAP1 PUSH2 0x47C JUMP JUMPDEST PUSH1 0x40 MLOAD DUP1 SWAP2 SUB SWAP1 RETURN JUMPDEST PUSH2 0x107 PUSH2 0x280 JUMP JUMPDEST PUSH1 0x40 MLOAD PUSH2 0x114 SWAP2 SWAP1 PUSH2 0x461 JUMP JUMPDEST PUSH1 0x40 MLOAD DUP1 SWAP2 SUB SWAP1 RETURN JUMPDEST PUSH2 0x137 PUSH1 0x4 DUP1 CALLDATASIZE SUB DUP2 ADD SWAP1 PUSH2 0x132 SWAP2 SWAP1 PUSH2 0x3D3 JUMP JUMPDEST PUSH2 0x2A4 JUMP JUMPDEST PUSH1 0x40 MLOAD PUSH2 0x14E SWAP12 SWAP11 SWAP10 SWAP9 SWAP8 SWAP7 SWAP6 SWAP5 SWAP4 SWAP3 SWAP2 SWAP1 PUSH2 0x4FA JUMP JUMPDEST PUSH1 0x40 MLOAD DUP1 SWAP2 SUB SWAP1 RETURN JUMPDEST PUSH1 0x3 PUSH1 0x20 MSTORE DUP1 PUSH1 0x0 MSTORE PUSH1 0x40 PUSH1 0x0 KECCAK256 PUSH1 0x0 SWAP2 POP SWAP1 POP DUP1 PUSH1 0x0 ADD SLOAD SWAP1 DUP1 PUSH1 0x1 ADD PUSH1 0x0 SWAP1 SLOAD SWAP1 PUSH2 0x100 EXP SWAP1 DIV PUSH20 0xFFFFFFFFFFFFFFFFFFFFFFFFFFFFFFFFFFFFFFFF AND SWAP1 DUP1 PUSH1 0x2 ADD SLOAD SWAP1 DUP1 PUSH1 0x3 ADD SLOAD SWAP1 DUP1 PUSH1 0x4 ADD SLOAD SWAP1 DUP1 PUSH1 0x5 ADD SLOAD SWAP1 DUP1 PUSH1 0x6 ADD SLOAD SWAP1 DUP1 PUSH1 0x7 ADD SLOAD SWAP1 POP DUP9 JUMP JUMPDEST PUSH1 0x4 PUSH1 0x20 MSTORE DUP1 PUSH1 0x0 MSTORE PUSH1 0x40 PUSH1 0x0 KECCAK256 PUSH1 0x0 SWAP2 POP SWAP1 POP DUP1 PUSH1 0x0 ADD SLOAD SWAP1 DUP1 PUSH1 0x1 ADD SLOAD SWAP1 DUP1 PUSH1 0x2 ADD SLOAD SWAP1 DUP1 PUSH1 0x3 ADD SLOAD SWAP1 DUP1 PUSH1 0x4 ADD SLOAD SWAP1 DUP1 PUSH1 0x5 ADD SLOAD SWAP1 POP DUP7 JUMP JUMPDEST PUSH1 0x5 PUSH1 0x20 MSTORE DUP2 PUSH1 0x0 MSTORE PUSH1 0x40 PUSH1 0x0 KECCAK256 DUP2 DUP2 SLOAD DUP2 LT PUSH2 0x217 JUMPI PUSH1 0x0 DUP1 REVERT JUMPDEST SWAP1 PUSH1 0x0 MSTORE PUSH1 0x20 PUSH1 0x0 KECCAK256 SWAP1 PUSH1 0x8 MUL ADD PUSH1 0x0 SWAP2 POP SWAP2 POP POP DUP1 PUSH1 0x0 ADD SLOAD SWAP1 DUP1 PUSH1 0x1 ADD PUSH1 0x0 SWAP1 SLOAD SWAP1 PUSH2 0x100 EXP SWAP1 DIV PUSH20 0xFFFFFFFFFFFFFFFFFFFFFFFFFFFFFFFFFFFFFFFF AND SWAP1 DUP1 PUSH1 0x2 ADD SLOAD SWAP1 DUP1 PUSH1 0x3 ADD SLOAD SWAP1 DUP1 PUSH1 0x4 ADD SLOAD SWAP1 DUP1 PUSH1 0x5 ADD SLOAD SWAP1 DUP1 PUSH1 0x6 ADD SLOAD SWAP1 DUP1 PUSH1 0x7 ADD SLOAD SWAP1 POP DUP9 JUMP JUMPDEST PUSH32 0xB72B3A91FC43CFD55C7C0304B984A2C2CC43D00FBE824ECB3D7CA6A0B1ABD1BB DUP2 JUMP JUMPDEST PUSH1 0x2 PUSH1 0x20 MSTORE DUP1 PUSH1 0x0 MSTORE PUSH1 0x40 PUSH1 0x0 KECCAK256 PUSH1 0x0 SWAP2 POP SWAP1 POP DUP1 PUSH1 0x0 ADD SLOAD SWAP1 DUP1 PUSH1 0x1 ADD SLOAD SWAP1 DUP1 PUSH1 0x2 ADD SLOAD SWAP1 DUP1 PUSH1 0x3 ADD SLOAD SWAP1 DUP1 PUSH1 0x4 ADD SLOAD SWAP1 DUP1 PUSH1 0x5 ADD PUSH1 0x0 SWAP1 SLOAD SWAP1 PUSH2 0x100 EXP SWAP1 DIV PUSH20 0xFFFFFFFFFFFFFFFFFFFFFFFFFFFFFFFFFFFFFFFF AND SWAP1 DUP1 PUSH1 0x6 ADD SLOAD SWAP1 DUP1 PUSH1 0x8 ADD PUSH1 0x0 SWAP1 SLOAD SWAP1 PUSH2 0x100 EXP SWAP1 DIV PUSH1 0xFF AND SWAP1 DUP1 PUSH1 0x8 ADD PUSH1 0x1 SWAP1 SLOAD SWAP1 PUSH2 0x100 EXP SWAP1 DIV PUSH1 0xFF AND SWAP1 DUP1 PUSH1 0x8 ADD PUSH1 0x2 SWAP1 SLOAD SWAP1 PUSH2 0x100 EXP SWAP1 DIV PUSH20 0xFFFFFFFFFFFFFFFFFFFFFFFFFFFFFFFFFFFFFFFF AND SWAP1 DUP1 PUSH1 0x9 ADD SLOAD SWAP1 POP DUP12 JUMP JUMPDEST PUSH1 0x0 DUP2 CALLDATALOAD SWAP1 POP PUSH2 0x367 DUP2 PUSH2 0x658 JUMP JUMPDEST SWAP3 SWAP2 POP POP JUMP JUMPDEST PUSH1 0x0 DUP2 CALLDATALOAD SWAP1 POP PUSH2 0x37C DUP2 PUSH2 0x66F JUMP JUMPDEST SWAP3 SWAP2 POP POP JUMP JUMPDEST PUSH1 0x0 DUP2 CALLDATALOAD SWAP1 POP PUSH2 0x391 DUP2 PUSH2 0x686 JUMP JUMPDEST SWAP3 SWAP2 POP POP JUMP JUMPDEST PUSH1 0x0 DUP1 PUSH1 0x40 DUP4 DUP6 SUB SLT ISZERO PUSH2 0x3AA JUMPI PUSH1 0x0 DUP1 REVERT JUMPDEST PUSH1 0x0 PUSH2 0x3B8 DUP6 DUP3 DUP7 ADD PUSH2 0x358 JUMP JUMPDEST SWAP3 POP POP PUSH1 0x20 PUSH2 0x3C9 DUP6 DUP3 DUP7 ADD PUSH2 0x382 JUMP JUMPDEST SWAP2 POP POP SWAP3 POP SWAP3 SWAP1 POP JUMP JUMPDEST PUSH1 0x0 PUSH1 0x20 DUP3 DUP5 SUB SLT ISZERO PUSH2 0x3E5 JUMPI PUSH1 0x0 DUP1 REVERT JUMPDEST PUSH1 0x0 PUSH2 0x3F3 DUP5 DUP3 DUP6 ADD PUSH2 0x36D JUMP JUMPDEST SWAP2 POP POP SWAP3 SWAP2 POP POP JUMP JUMPDEST PUSH1 0x0 PUSH1 0x20 DUP3 DUP5 SUB SLT ISZERO PUSH2 0x40E JUMPI PUSH1 0x0 DUP1 REVERT JUMPDEST PUSH1 0x0 PUSH2 0x41C DUP5 DUP3 DUP6 ADD PUSH2 0x382 JUMP JUMPDEST SWAP2 POP POP SWAP3 SWAP2 POP POP JUMP JUMPDEST PUSH2 0x42E DUP2 PUSH2 0x606 JUMP JUMPDEST DUP3 MSTORE POP POP JUMP JUMPDEST PUSH2 0x43D DUP2 PUSH2 0x618 JUMP JUMPDEST DUP3 MSTORE POP POP JUMP JUMPDEST PUSH2 0x44C DUP2 PUSH2 0x624 JUMP JUMPDEST DUP3 MSTORE POP POP JUMP JUMPDEST PUSH2 0x45B DUP2 PUSH2 0x64E JUMP JUMPDEST DUP3 MSTORE POP POP JUMP JUMPDEST PUSH1 0x0 PUSH1 0x20 DUP3 ADD SWAP1 POP PUSH2 0x476 PUSH1 0x0 DUP4 ADD DUP5 PUSH2 0x443 JUMP JUMPDEST SWAP3 SWAP2 POP POP JUMP JUMPDEST PUSH1 0x0 PUSH2 0x100 DUP3 ADD SWAP1 POP PUSH2 0x492 PUSH1 0x0 DUP4 ADD DUP12 PUSH2 0x443 JUMP JUMPDEST PUSH2 0x49F PUSH1 0x20 DUP4 ADD DUP11 PUSH2 0x425 JUMP JUMPDEST PUSH2 0x4AC PUSH1 0x40 DUP4 ADD DUP10 PUSH2 0x452 JUMP JUMPDEST PUSH2 0x4B9 PUSH1 0x60 DUP4 ADD DUP9 PUSH2 0x452 JUMP JUMPDEST PUSH2 0x4C6 PUSH1 0x80 DUP4 ADD DUP8 PUSH2 0x452 JUMP JUMPDEST PUSH2 0x4D3 PUSH1 0xA0 DUP4 ADD DUP7 PUSH2 0x452 JUMP JUMPDEST PUSH2 0x4E0 PUSH1 0xC0 DUP4 ADD DUP6 PUSH2 0x452 JUMP JUMPDEST PUSH2 0x4ED PUSH1 0xE0 DUP4 ADD DUP5 PUSH2 0x452 JUMP JUMPDEST SWAP10 SWAP9 POP POP POP POP POP POP POP POP POP JUMP JUMPDEST PUSH1 0x0 PUSH2 0x160 DUP3 ADD SWAP1 POP PUSH2 0x510 PUSH1 0x0 DUP4 ADD DUP15 PUSH2 0x452 JUMP JUMPDEST PUSH2 0x51D PUSH1 0x20 DUP4 ADD DUP14 PUSH2 0x452 JUMP JUMPDEST PUSH2 0x52A PUSH1 0x40 DUP4 ADD DUP13 PUSH2 0x452 JUMP JUMPDEST PUSH2 0x537 PUSH1 0x60 DUP4 ADD DUP12 PUSH2 0x452 JUMP JUMPDEST PUSH2 0x544 PUSH1 0x80 DUP4 ADD DUP11 PUSH2 0x452 JUMP JUMPDEST PUSH2 0x551 PUSH1 0xA0 DUP4 ADD DUP10 PUSH2 0x425 JUMP JUMPDEST PUSH2 0x55E PUSH1 0xC0 DUP4 ADD DUP9 PUSH2 0x452 JUMP JUMPDEST PUSH2 0x56B PUSH1 0xE0 DUP4 ADD DUP8 PUSH2 0x434 JUMP JUMPDEST PUSH2 0x579 PUSH2 0x100 DUP4 ADD DUP7 PUSH2 0x434 JUMP JUMPDEST PUSH2 0x587 PUSH2 0x120 DUP4 ADD DUP6 PUSH2 0x425 JUMP JUMPDEST PUSH2 0x595 PUSH2 0x140 DUP4 ADD DUP5 PUSH2 0x443 JUMP JUMPDEST SWAP13 SWAP12 POP POP POP POP POP POP POP POP POP POP POP POP JUMP JUMPDEST PUSH1 0x0 PUSH1 0xC0 DUP3 ADD SWAP1 POP PUSH2 0x5BA PUSH1 0x0 DUP4 ADD DUP10 PUSH2 0x452 JUMP JUMPDEST PUSH2 0x5C7 PUSH1 0x20 DUP4 ADD DUP9 PUSH2 0x452 JUMP JUMPDEST PUSH2 0x5D4 PUSH1 0x40 DUP4 ADD DUP8 PUSH2 0x452 JUMP JUMPDEST PUSH2 0x5E1 PUSH1 0x60 DUP4 ADD DUP7 PUSH2 0x452 JUMP JUMPDEST PUSH2 0x5EE PUSH1 0x80 DUP4 ADD DUP6 PUSH2 0x452 JUMP JUMPDEST PUSH2 0x5FB PUSH1 0xA0 DUP4 ADD DUP5 PUSH2 0x452 JUMP JUMPDEST SWAP8 SWAP7 POP POP POP POP POP POP POP JUMP JUMPDEST PUSH1 0x0 PUSH2 0x611 DUP3 PUSH2 0x62E JUMP JUMPDEST SWAP1 POP SWAP2 SWAP1 POP JUMP JUMPDEST PUSH1 0x0 DUP2 ISZERO ISZERO SWAP1 POP SWAP2 SWAP1 POP JUMP JUMPDEST PUSH1 0x0 DUP2 SWAP1 POP SWAP2 SWAP1 POP JUMP JUMPDEST PUSH1 0x0 PUSH20 0xFFFFFFFFFFFFFFFFFFFFFFFFFFFFFFFFFFFFFFFF DUP3 AND SWAP1 POP SWAP2 SWAP1 POP JUMP JUMPDEST PUSH1 0x0 DUP2 SWAP1 POP SWAP2 SWAP1 POP JUMP JUMPDEST PUSH2 0x661 DUP2 PUSH2 0x606 JUMP JUMPDEST DUP2 EQ PUSH2 0x66C JUMPI PUSH1 0x0 DUP1 REVERT JUMPDEST POP JUMP JUMPDEST PUSH2 0x678 DUP2 PUSH2 0x624 JUMP JUMPDEST DUP2 EQ PUSH2 0x683 JUMPI PUSH1 0x0 DUP1 REVERT JUMPDEST POP JUMP JUMPDEST PUSH2 0x68F DUP2 PUSH2 0x64E JUMP JUMPDEST DUP2 EQ PUSH2 0x69A JUMPI PUSH1 0x0 DUP1 REVERT JUMPDEST POP JUMP INVALID LOG2 PUSH5 0x6970667358 0x22 SLT KECCAK256 SSTORE 0xE5 ADDMOD GASPRICE 0xAC 0x2E 0xDC 0xAF 0x1F STATICCALL 0xDA 0x2A SSTORE 0xDE 0x2C 0xA5 CALLVALUE 0x2F 0xD4 0x4D 0xD3 0x5D 0xA9 0xBC 0xD6 0xE3 0xC5 DUP1 0xCE DUP1 KECCAK256 0x4B PUSH5 0x736F6C6343 STOP ADDMOD MUL STOP CALLER "
        },
        "methodIdentifiers": {
          "Rocket_Admin_ROLE()": "aa628108",
          "claimCalendars(bytes32)": "853f074a",
          "contributions(uint256)": "1cee0700",
          "myContributions(address,uint256)": "9c30aefa",
          "pools(bytes32)": "b5217bb4"
        }
      },
      "storageLayout": {
        "storage": [
          {
            "astId": 1948,
            "contract": "contracts/model/RocketModel.sol:RocketModel",
            "label": "permissionAddress",
            "offset": 0,
            "slot": "0",
            "type": "t_address"
          },
          {
            "astId": 1950,
            "contract": "contracts/model/RocketModel.sol:RocketModel",
            "label": "feeAddress",
            "offset": 0,
            "slot": "1",
            "type": "t_address"
          },
          {
            "astId": 1958,
            "contract": "contracts/model/RocketModel.sol:RocketModel",
            "label": "pools",
            "offset": 0,
            "slot": "2",
            "type": "t_mapping(t_bytes32,t_struct(Pool)2020_storage)"
          },
          {
            "astId": 1963,
            "contract": "contracts/model/RocketModel.sol:RocketModel",
            "label": "contributions",
            "offset": 0,
            "slot": "3",
            "type": "t_mapping(t_uint256,t_struct(Contribution)2050_storage)"
          },
          {
            "astId": 1968,
            "contract": "contracts/model/RocketModel.sol:RocketModel",
            "label": "claimCalendars",
            "offset": 0,
            "slot": "4",
            "type": "t_mapping(t_bytes32,t_struct(ClaimCalendar)2033_storage)"
          },
          {
            "astId": 1974,
            "contract": "contracts/model/RocketModel.sol:RocketModel",
            "label": "myContributions",
            "offset": 0,
            "slot": "5",
            "type": "t_mapping(t_address,t_array(t_struct(Contribution)2050_storage)dyn_storage)"
          },
          {
            "astId": 1979,
            "contract": "contracts/model/RocketModel.sol:RocketModel",
            "label": "contributionSchedules",
            "offset": 0,
            "slot": "6",
            "type": "t_mapping(t_bytes32,t_struct(ContributionSchedule)1994_storage)"
          }
        ],
        "types": {
          "t_address": {
            "encoding": "inplace",
            "label": "address",
            "numberOfBytes": "20"
          },
          "t_array(t_address)dyn_storage": {
            "base": "t_address",
            "encoding": "dynamic_array",
            "label": "address[]",
            "numberOfBytes": "32"
          },
          "t_array(t_struct(Contribution)2050_storage)dyn_storage": {
            "base": "t_struct(Contribution)2050_storage",
            "encoding": "dynamic_array",
            "label": "struct RocketModel.Contribution[]",
            "numberOfBytes": "32"
          },
          "t_bool": {
            "encoding": "inplace",
            "label": "bool",
            "numberOfBytes": "1"
          },
          "t_bytes32": {
            "encoding": "inplace",
            "label": "bytes32",
            "numberOfBytes": "32"
          },
          "t_mapping(t_address,t_array(t_struct(Contribution)2050_storage)dyn_storage)": {
            "encoding": "mapping",
            "key": "t_address",
            "label": "mapping(address => struct RocketModel.Contribution[])",
            "numberOfBytes": "32",
            "value": "t_array(t_struct(Contribution)2050_storage)dyn_storage"
          },
          "t_mapping(t_bytes32,t_struct(ClaimCalendar)2033_storage)": {
            "encoding": "mapping",
            "key": "t_bytes32",
            "label": "mapping(bytes32 => struct RocketModel.ClaimCalendar)",
            "numberOfBytes": "32",
            "value": "t_struct(ClaimCalendar)2033_storage"
          },
          "t_mapping(t_bytes32,t_struct(ContributionSchedule)1994_storage)": {
            "encoding": "mapping",
            "key": "t_bytes32",
            "label": "mapping(bytes32 => struct RocketModel.ContributionSchedule)",
            "numberOfBytes": "32",
            "value": "t_struct(ContributionSchedule)1994_storage"
          },
          "t_mapping(t_bytes32,t_struct(Pool)2020_storage)": {
            "encoding": "mapping",
            "key": "t_bytes32",
            "label": "mapping(bytes32 => struct RocketModel.Pool)",
            "numberOfBytes": "32",
            "value": "t_struct(Pool)2020_storage"
          },
          "t_mapping(t_uint256,t_struct(Contribution)2050_storage)": {
            "encoding": "mapping",
            "key": "t_uint256",
            "label": "mapping(uint256 => struct RocketModel.Contribution)",
            "numberOfBytes": "32",
            "value": "t_struct(Contribution)2050_storage"
          },
          "t_struct(ClaimCalendar)2033_storage": {
            "encoding": "inplace",
            "label": "struct RocketModel.ClaimCalendar",
            "members": [
              {
                "astId": 2022,
                "contract": "contracts/model/RocketModel.sol:RocketModel",
                "label": "firstInterval",
                "offset": 0,
                "slot": "0",
                "type": "t_uint256"
              },
              {
                "astId": 2024,
                "contract": "contracts/model/RocketModel.sol:RocketModel",
                "label": "nextInterval",
                "offset": 0,
                "slot": "1",
                "type": "t_uint256"
              },
              {
                "astId": 2026,
                "contract": "contracts/model/RocketModel.sol:RocketModel",
                "label": "finalInterval",
                "offset": 0,
                "slot": "2",
                "type": "t_uint256"
              },
              {
                "astId": 2028,
                "contract": "contracts/model/RocketModel.sol:RocketModel",
                "label": "depoistBatch",
                "offset": 0,
                "slot": "3",
                "type": "t_uint256"
              },
              {
                "astId": 2030,
                "contract": "contracts/model/RocketModel.sol:RocketModel",
                "label": "claimRate",
                "offset": 0,
                "slot": "4",
                "type": "t_uint256"
              },
              {
                "astId": 2032,
                "contract": "contracts/model/RocketModel.sol:RocketModel",
                "label": "duration",
                "offset": 0,
                "slot": "5",
                "type": "t_uint256"
              }
            ],
            "numberOfBytes": "192"
          },
          "t_struct(Contribution)2050_storage": {
            "encoding": "inplace",
            "label": "struct RocketModel.Contribution",
            "members": [
              {
                "astId": 2035,
                "contract": "contracts/model/RocketModel.sol:RocketModel",
                "label": "poolId",
                "offset": 0,
                "slot": "0",
                "type": "t_bytes32"
              },
              {
                "astId": 2037,
                "contract": "contracts/model/RocketModel.sol:RocketModel",
                "label": "contributor",
                "offset": 0,
                "slot": "1",
                "type": "t_address"
              },
              {
                "astId": 2039,
                "contract": "contracts/model/RocketModel.sol:RocketModel",
                "label": "amountToReceive",
                "offset": 0,
                "slot": "2",
                "type": "t_uint256"
              },
              {
                "astId": 2041,
                "contract": "contracts/model/RocketModel.sol:RocketModel",
                "label": "amountContributed",
                "offset": 0,
                "slot": "3",
                "type": "t_uint256"
              },
              {
                "astId": 2043,
                "contract": "contracts/model/RocketModel.sol:RocketModel",
                "label": "lastWithdrawal",
                "offset": 0,
                "slot": "4",
                "type": "t_uint256"
              },
              {
                "astId": 2045,
                "contract": "contracts/model/RocketModel.sol:RocketModel",
                "label": "nextWithdrawal",
                "offset": 0,
                "slot": "5",
                "type": "t_uint256"
              },
              {
                "astId": 2047,
                "contract": "contracts/model/RocketModel.sol:RocketModel",
                "label": "totalWithdrwan",
                "offset": 0,
                "slot": "6",
                "type": "t_uint256"
              },
              {
                "astId": 2049,
                "contract": "contracts/model/RocketModel.sol:RocketModel",
                "label": "withdrawalBatch",
                "offset": 0,
                "slot": "7",
                "type": "t_uint256"
              }
            ],
            "numberOfBytes": "256"
          },
          "t_struct(ContributionSchedule)1994_storage": {
            "encoding": "inplace",
            "label": "struct RocketModel.ContributionSchedule",
            "members": [
              {
                "astId": 1981,
                "contract": "contracts/model/RocketModel.sol:RocketModel",
                "label": "poolId",
                "offset": 0,
                "slot": "0",
                "type": "t_bytes32"
              },
              {
                "astId": 1983,
                "contract": "contracts/model/RocketModel.sol:RocketModel",
                "label": "tier",
                "offset": 0,
                "slot": "1",
                "type": "t_uint256"
              },
              {
                "astId": 1985,
                "contract": "contracts/model/RocketModel.sol:RocketModel",
                "label": "minContributionAmount",
                "offset": 0,
                "slot": "2",
                "type": "t_uint256"
              },
              {
                "astId": 1987,
                "contract": "contracts/model/RocketModel.sol:RocketModel",
                "label": "maxContributionAmount",
                "offset": 0,
                "slot": "3",
                "type": "t_uint256"
              },
              {
                "astId": 1989,
                "contract": "contracts/model/RocketModel.sol:RocketModel",
                "label": "contributionFee",
                "offset": 0,
                "slot": "4",
                "type": "t_uint256"
              },
              {
                "astId": 1991,
                "contract": "contracts/model/RocketModel.sol:RocketModel",
                "label": "contributionOpenDate",
                "offset": 0,
                "slot": "5",
                "type": "t_uint256"
              },
              {
                "astId": 1993,
                "contract": "contracts/model/RocketModel.sol:RocketModel",
                "label": "contributionCloseDate",
                "offset": 0,
                "slot": "6",
                "type": "t_uint256"
              }
            ],
            "numberOfBytes": "224"
          },
          "t_struct(Pool)2020_storage": {
            "encoding": "inplace",
            "label": "struct RocketModel.Pool",
            "members": [
              {
                "astId": 1996,
                "contract": "contracts/model/RocketModel.sol:RocketModel",
                "label": "tokenClaimAmount",
                "offset": 0,
                "slot": "0",
                "type": "t_uint256"
              },
              {
                "astId": 1998,
                "contract": "contracts/model/RocketModel.sol:RocketModel",
                "label": "totalClaimToken",
                "offset": 0,
                "slot": "1",
                "type": "t_uint256"
              },
              {
                "astId": 2000,
                "contract": "contracts/model/RocketModel.sol:RocketModel",
                "label": "targetAmount",
                "offset": 0,
                "slot": "2",
                "type": "t_uint256"
              },
              {
                "astId": 2002,
                "contract": "contracts/model/RocketModel.sol:RocketModel",
                "label": "expiryTime",
                "offset": 0,
                "slot": "3",
                "type": "t_uint256"
              },
              {
                "astId": 2004,
                "contract": "contracts/model/RocketModel.sol:RocketModel",
                "label": "amountContributed",
                "offset": 0,
                "slot": "4",
                "type": "t_uint256"
              },
              {
                "astId": 2006,
                "contract": "contracts/model/RocketModel.sol:RocketModel",
                "label": "poolRewardAddress",
                "offset": 0,
                "slot": "5",
                "type": "t_address"
              },
              {
                "astId": 2008,
                "contract": "contracts/model/RocketModel.sol:RocketModel",
                "label": "price",
                "offset": 0,
                "slot": "6",
                "type": "t_uint256"
              },
              {
                "astId": 2011,
                "contract": "contracts/model/RocketModel.sol:RocketModel",
                "label": "tokens",
                "offset": 0,
                "slot": "7",
                "type": "t_array(t_address)dyn_storage"
              },
              {
                "astId": 2013,
                "contract": "contracts/model/RocketModel.sol:RocketModel",
                "label": "isComplete",
                "offset": 0,
                "slot": "8",
                "type": "t_bool"
              },
              {
                "astId": 2015,
                "contract": "contracts/model/RocketModel.sol:RocketModel",
                "label": "canClaimToken",
                "offset": 1,
                "slot": "8",
                "type": "t_bool"
              },
              {
                "astId": 2017,
                "contract": "contracts/model/RocketModel.sol:RocketModel",
                "label": "receiver",
                "offset": 2,
                "slot": "8",
                "type": "t_address"
              },
              {
                "astId": 2019,
                "contract": "contracts/model/RocketModel.sol:RocketModel",
                "label": "poolAddress",
                "offset": 0,
                "slot": "9",
                "type": "t_bytes32"
              }
            ],
            "numberOfBytes": "320"
          },
          "t_uint256": {
            "encoding": "inplace",
            "label": "uint256",
            "numberOfBytes": "32"
          }
        }
      }
    }
  }
}