{
  "_format": "hh-sol-artifact-1",
  "contractName": "PermissionItems",
  "sourceName": "contracts/permissioning/PermissionItems.sol",
  "abi": [
    {
      "inputs": [],
      "stateMutability": "nonpayable",
      "type": "constructor"
    },
    {
      "anonymous": false,
      "inputs": [
        {
          "indexed": true,
          "internalType": "address",
          "name": "account",
          "type": "address"
        },
        {
          "indexed": true,
          "internalType": "address",
          "name": "operator",
          "type": "address"
        },
        {
          "indexed": false,
          "internalType": "bool",
          "name": "approved",
          "type": "bool"
        }
      ],
      "name": "ApprovalForAll",
      "type": "event"
    },
    {
      "anonymous": false,
      "inputs": [
        {
          "indexed": true,
          "internalType": "bytes32",
          "name": "role",
          "type": "bytes32"
        },
        {
          "indexed": true,
          "internalType": "bytes32",
          "name": "previousAdminRole",
          "type": "bytes32"
        },
        {
          "indexed": true,
          "internalType": "bytes32",
          "name": "newAdminRole",
          "type": "bytes32"
        }
      ],
      "name": "RoleAdminChanged",
      "type": "event"
    },
    {
      "anonymous": false,
      "inputs": [
        {
          "indexed": true,
          "internalType": "bytes32",
          "name": "role",
          "type": "bytes32"
        },
        {
          "indexed": true,
          "internalType": "address",
          "name": "account",
          "type": "address"
        },
        {
          "indexed": true,
          "internalType": "address",
          "name": "sender",
          "type": "address"
        }
      ],
      "name": "RoleGranted",
      "type": "event"
    },
    {
      "anonymous": false,
      "inputs": [
        {
          "indexed": true,
          "internalType": "bytes32",
          "name": "role",
          "type": "bytes32"
        },
        {
          "indexed": true,
          "internalType": "address",
          "name": "account",
          "type": "address"
        },
        {
          "indexed": true,
          "internalType": "address",
          "name": "sender",
          "type": "address"
        }
      ],
      "name": "RoleRevoked",
      "type": "event"
    },
    {
      "anonymous": false,
      "inputs": [
        {
          "indexed": true,
          "internalType": "address",
          "name": "operator",
          "type": "address"
        },
        {
          "indexed": true,
          "internalType": "address",
          "name": "from",
          "type": "address"
        },
        {
          "indexed": true,
          "internalType": "address",
          "name": "to",
          "type": "address"
        },
        {
          "indexed": false,
          "internalType": "uint256[]",
          "name": "ids",
          "type": "uint256[]"
        },
        {
          "indexed": false,
          "internalType": "uint256[]",
          "name": "values",
          "type": "uint256[]"
        }
      ],
      "name": "TransferBatch",
      "type": "event"
    },
    {
      "anonymous": false,
      "inputs": [
        {
          "indexed": true,
          "internalType": "address",
          "name": "operator",
          "type": "address"
        },
        {
          "indexed": true,
          "internalType": "address",
          "name": "from",
          "type": "address"
        },
        {
          "indexed": true,
          "internalType": "address",
          "name": "to",
          "type": "address"
        },
        {
          "indexed": false,
          "internalType": "uint256",
          "name": "id",
          "type": "uint256"
        },
        {
          "indexed": false,
          "internalType": "uint256",
          "name": "value",
          "type": "uint256"
        }
      ],
      "name": "TransferSingle",
      "type": "event"
    },
    {
      "anonymous": false,
      "inputs": [
        {
          "indexed": false,
          "internalType": "string",
          "name": "value",
          "type": "string"
        },
        {
          "indexed": true,
          "internalType": "uint256",
          "name": "id",
          "type": "uint256"
        }
      ],
      "name": "URI",
      "type": "event"
    },
    {
      "inputs": [],
      "name": "BURNER_ROLE",
      "outputs": [
        {
          "internalType": "bytes32",
          "name": "",
          "type": "bytes32"
        }
      ],
      "stateMutability": "view",
      "type": "function"
    },
    {
      "inputs": [],
      "name": "DEFAULT_ADMIN_ROLE",
      "outputs": [
        {
          "internalType": "bytes32",
          "name": "",
          "type": "bytes32"
        }
      ],
      "stateMutability": "view",
      "type": "function"
    },
    {
      "inputs": [],
      "name": "MINTER_ROLE",
      "outputs": [
        {
          "internalType": "bytes32",
          "name": "",
          "type": "bytes32"
        }
      ],
      "stateMutability": "view",
      "type": "function"
    },
    {
      "inputs": [
        {
          "internalType": "address",
          "name": "account",
          "type": "address"
        },
        {
          "internalType": "uint256",
          "name": "id",
          "type": "uint256"
        }
      ],
      "name": "balanceOf",
      "outputs": [
        {
          "internalType": "uint256",
          "name": "",
          "type": "uint256"
        }
      ],
      "stateMutability": "view",
      "type": "function"
    },
    {
      "inputs": [
        {
          "internalType": "address[]",
          "name": "accounts",
          "type": "address[]"
        },
        {
          "internalType": "uint256[]",
          "name": "ids",
          "type": "uint256[]"
        }
      ],
      "name": "balanceOfBatch",
      "outputs": [
        {
          "internalType": "uint256[]",
          "name": "",
          "type": "uint256[]"
        }
      ],
      "stateMutability": "view",
      "type": "function"
    },
    {
      "inputs": [
        {
          "internalType": "address",
          "name": "account",
          "type": "address"
        },
        {
          "internalType": "uint256",
          "name": "id",
          "type": "uint256"
        },
        {
          "internalType": "uint256",
          "name": "value",
          "type": "uint256"
        }
      ],
      "name": "burn",
      "outputs": [],
      "stateMutability": "nonpayable",
      "type": "function"
    },
    {
      "inputs": [
        {
          "internalType": "address",
          "name": "account",
          "type": "address"
        },
        {
          "internalType": "uint256[]",
          "name": "ids",
          "type": "uint256[]"
        },
        {
          "internalType": "uint256[]",
          "name": "values",
          "type": "uint256[]"
        }
      ],
      "name": "burnBatch",
      "outputs": [],
      "stateMutability": "nonpayable",
      "type": "function"
    },
    {
      "inputs": [
        {
          "internalType": "bytes32",
          "name": "role",
          "type": "bytes32"
        }
      ],
      "name": "getRoleAdmin",
      "outputs": [
        {
          "internalType": "bytes32",
          "name": "",
          "type": "bytes32"
        }
      ],
      "stateMutability": "view",
      "type": "function"
    },
    {
      "inputs": [
        {
          "internalType": "bytes32",
          "name": "role",
          "type": "bytes32"
        },
        {
          "internalType": "address",
          "name": "account",
          "type": "address"
        }
      ],
      "name": "grantRole",
      "outputs": [],
      "stateMutability": "nonpayable",
      "type": "function"
    },
    {
      "inputs": [
        {
          "internalType": "bytes32",
          "name": "role",
          "type": "bytes32"
        },
        {
          "internalType": "address",
          "name": "account",
          "type": "address"
        }
      ],
      "name": "hasRole",
      "outputs": [
        {
          "internalType": "bool",
          "name": "",
          "type": "bool"
        }
      ],
      "stateMutability": "view",
      "type": "function"
    },
    {
      "inputs": [
        {
          "internalType": "address",
          "name": "account",
          "type": "address"
        },
        {
          "internalType": "address",
          "name": "operator",
          "type": "address"
        }
      ],
      "name": "isApprovedForAll",
      "outputs": [
        {
          "internalType": "bool",
          "name": "",
          "type": "bool"
        }
      ],
      "stateMutability": "view",
      "type": "function"
    },
    {
      "inputs": [
        {
          "internalType": "address",
          "name": "to",
          "type": "address"
        },
        {
          "internalType": "uint256",
          "name": "id",
          "type": "uint256"
        },
        {
          "internalType": "uint256",
          "name": "amount",
          "type": "uint256"
        },
        {
          "internalType": "bytes",
          "name": "data",
          "type": "bytes"
        }
      ],
      "name": "mint",
      "outputs": [],
      "stateMutability": "nonpayable",
      "type": "function"
    },
    {
      "inputs": [
        {
          "internalType": "address",
          "name": "to",
          "type": "address"
        },
        {
          "internalType": "uint256[]",
          "name": "ids",
          "type": "uint256[]"
        },
        {
          "internalType": "uint256[]",
          "name": "amounts",
          "type": "uint256[]"
        },
        {
          "internalType": "bytes",
          "name": "data",
          "type": "bytes"
        }
      ],
      "name": "mintBatch",
      "outputs": [],
      "stateMutability": "nonpayable",
      "type": "function"
    },
    {
      "inputs": [
        {
          "internalType": "bytes32",
          "name": "role",
          "type": "bytes32"
        },
        {
          "internalType": "address",
          "name": "account",
          "type": "address"
        }
      ],
      "name": "renounceRole",
      "outputs": [],
      "stateMutability": "nonpayable",
      "type": "function"
    },
    {
      "inputs": [
        {
          "internalType": "address",
          "name": "account",
          "type": "address"
        }
      ],
      "name": "revokeAdmin",
      "outputs": [],
      "stateMutability": "nonpayable",
      "type": "function"
    },
    {
      "inputs": [
        {
          "internalType": "bytes32",
          "name": "role",
          "type": "bytes32"
        },
        {
          "internalType": "address",
          "name": "account",
          "type": "address"
        }
      ],
      "name": "revokeRole",
      "outputs": [],
      "stateMutability": "nonpayable",
      "type": "function"
    },
    {
      "inputs": [
        {
          "internalType": "address",
          "name": "",
          "type": "address"
        },
        {
          "internalType": "address",
          "name": "",
          "type": "address"
        },
        {
          "internalType": "uint256[]",
          "name": "",
          "type": "uint256[]"
        },
        {
          "internalType": "uint256[]",
          "name": "",
          "type": "uint256[]"
        },
        {
          "internalType": "bytes",
          "name": "",
          "type": "bytes"
        }
      ],
      "name": "safeBatchTransferFrom",
      "outputs": [],
      "stateMutability": "pure",
      "type": "function"
    },
    {
      "inputs": [
        {
          "internalType": "address",
          "name": "",
          "type": "address"
        },
        {
          "internalType": "address",
          "name": "",
          "type": "address"
        },
        {
          "internalType": "uint256",
          "name": "",
          "type": "uint256"
        },
        {
          "internalType": "uint256",
          "name": "",
          "type": "uint256"
        },
        {
          "internalType": "bytes",
          "name": "",
          "type": "bytes"
        }
      ],
      "name": "safeTransferFrom",
      "outputs": [],
      "stateMutability": "pure",
      "type": "function"
    },
    {
      "inputs": [
        {
          "internalType": "address",
          "name": "account",
          "type": "address"
        }
      ],
      "name": "setAdmin",
      "outputs": [],
      "stateMutability": "nonpayable",
      "type": "function"
    },
    {
      "inputs": [
        {
          "internalType": "address",
          "name": "",
          "type": "address"
        },
        {
          "internalType": "bool",
          "name": "",
          "type": "bool"
        }
      ],
      "name": "setApprovalForAll",
      "outputs": [],
      "stateMutability": "pure",
      "type": "function"
    },
    {
      "inputs": [
        {
          "internalType": "bytes4",
          "name": "interfaceId",
          "type": "bytes4"
        }
      ],
      "name": "supportsInterface",
      "outputs": [
        {
          "internalType": "bool",
          "name": "",
          "type": "bool"
        }
      ],
      "stateMutability": "view",
      "type": "function"
    },
    {
      "inputs": [
        {
          "internalType": "uint256",
          "name": "",
          "type": "uint256"
        }
      ],
      "name": "uri",
      "outputs": [
        {
          "internalType": "string",
          "name": "",
          "type": "string"
        }
      ],
      "stateMutability": "view",
      "type": "function"
    }
  ],
  "bytecode": "0x60806040523480156200001157600080fd5b506040518060200160405280600081525062000033816200004f60201b60201c565b50620000496000801b336200006b60201b60201c565b620002fb565b806002908051906020019062000067929190620001e6565b5050565b6200007d82826200008160201b60201c565b5050565b6200009382826200017360201b60201c565b6200016f5760016003600084815260200190815260200160002060000160008373ffffffffffffffffffffffffffffffffffffffff1673ffffffffffffffffffffffffffffffffffffffff16815260200190815260200160002060006101000a81548160ff02191690831515021790555062000114620001de60201b60201c565b73ffffffffffffffffffffffffffffffffffffffff168173ffffffffffffffffffffffffffffffffffffffff16837f2f8788117e7eff1d82e926ec794901d17c78024a50270940304540a733656f0d60405160405180910390a45b5050565b60006003600084815260200190815260200160002060000160008373ffffffffffffffffffffffffffffffffffffffff1673ffffffffffffffffffffffffffffffffffffffff16815260200190815260200160002060009054906101000a900460ff16905092915050565b600033905090565b828054620001f49062000296565b90600052602060002090601f01602090048101928262000218576000855562000264565b82601f106200023357805160ff191683800117855562000264565b8280016001018555821562000264579182015b828111156200026357825182559160200191906001019062000246565b5b50905062000273919062000277565b5090565b5b808211156200029257600081600090555060010162000278565b5090565b60006002820490506001821680620002af57607f821691505b60208210811415620002c657620002c5620002cc565b5b50919050565b7f4e487b7100000000000000000000000000000000000000000000000000000000600052602260045260246000fd5b61382a806200030b6000396000f3fe608060405234801561001057600080fd5b50600436106101415760003560e01c80636b20c454116100b8578063a22cb4651161007c578063a22cb46514610382578063d53913931461039e578063d547741f146103bc578063e985e9c5146103d8578063f242432a14610408578063f5298aca1461042457610141565b80636b20c454146102e0578063704b6c02146102fc578063731133e91461031857806391d1485414610334578063a217fddf1461036457610141565b8063282c51f31161010a578063282c51f3146102225780632d345670146102405780632eb2c2d61461025c5780632f2ff15d1461027857806336568abe146102945780634e1273f4146102b057610141565b8062fdd58e1461014657806301ffc9a7146101765780630e89341c146101a65780631f7fdffa146101d6578063248a9ca3146101f2575b600080fd5b610160600480360381019061015b9190612551565b610440565b60405161016d9190612e61565b60405180910390f35b610190600480360381019061018b9190612728565b610509565b60405161019d9190612c69565b60405180910390f35b6101c060048036038101906101bb919061277a565b610510565b6040516101cd9190612c9f565b60405180910390f35b6101f060048036038101906101eb919061246a565b6105a4565b005b61020c600480360381019061020791906126c3565b610626565b6040516102199190612c84565b60405180910390f35b61022a610646565b6040516102379190612c84565b60405180910390f35b61025a60048036038101906102559190612238565b61066a565b005b6102766004803603810190610271919061229d565b6106c1565b005b610292600480360381019061028d91906126ec565b6106fc565b005b6102ae60048036038101906102a991906126ec565b610725565b005b6102ca60048036038101906102c59190612657565b6107a8565b6040516102d79190612c10565b60405180910390f35b6102fa60048036038101906102f591906123eb565b610959565b005b61031660048036038101906103119190612238565b6109d9565b005b610332600480360381019061032d91906125dc565b610a30565b005b61034e600480360381019061034991906126ec565b610ab2565b60405161035b9190612c69565b60405180910390f35b61036c610b1d565b6040516103799190612c84565b60405180910390f35b61039c60048036038101906103979190612515565b610b24565b005b6103a6610b5f565b6040516103b39190612c84565b60405180910390f35b6103d660048036038101906103d191906126ec565b610b83565b005b6103f260048036038101906103ed9190612261565b610bac565b6040516103ff9190612c69565b60405180910390f35b610422600480360381019061041d919061235c565b610c40565b005b61043e6004803603810190610439919061258d565b610c7b565b005b60008073ffffffffffffffffffffffffffffffffffffffff168373ffffffffffffffffffffffffffffffffffffffff1614156104b1576040517f08c379a00000000000000000000000000000000000000000000000000000000081526004016104a890612d61565b60405180910390fd5b60008083815260200190815260200160002060008473ffffffffffffffffffffffffffffffffffffffff1673ffffffffffffffffffffffffffffffffffffffff16815260200190815260200160002054905092915050565b6000919050565b60606002805461051f90613169565b80601f016020809104026020016040519081016040528092919081815260200182805461054b90613169565b80156105985780601f1061056d57610100808354040283529160200191610598565b820191906000526020600020905b81548152906001019060200180831161057b57829003601f168201915b50505050509050919050565b6105d57f9f2df0fed2c77648de5860a4cc508cd0818c85b8b8a1ab4ceeef8d981c8956a66105d0610cfb565b610ab2565b610614576040517f08c379a000000000000000000000000000000000000000000000000000000000815260040161060b90612d21565b60405180910390fd5b61062084848484610d03565b50505050565b600060036000838152602001908152602001600020600101549050919050565b7f3c11d16cbaffd01df69ce1c404f6340ee057498f5f00246190ea54220576a84881565b6106947f9f2df0fed2c77648de5860a4cc508cd0818c85b8b8a1ab4ceeef8d981c8956a682610b83565b6106be7f3c11d16cbaffd01df69ce1c404f6340ee057498f5f00246190ea54220576a84882610b83565b50565b6040517f08c379a00000000000000000000000000000000000000000000000000000000081526004016106f390612da1565b60405180910390fd5b61070582610626565b61071681610711610cfb565b610f6d565b610720838361100a565b505050565b61072d610cfb565b73ffffffffffffffffffffffffffffffffffffffff168173ffffffffffffffffffffffffffffffffffffffff161461079a576040517f08c379a000000000000000000000000000000000000000000000000000000000815260040161079190612e41565b60405180910390fd5b6107a482826110eb565b5050565b606081518351146107ee576040517f08c379a00000000000000000000000000000000000000000000000000000000081526004016107e590612de1565b60405180910390fd5b6000835167ffffffffffffffff811115610831577f4e487b7100000000000000000000000000000000000000000000000000000000600052604160045260246000fd5b60405190808252806020026020018201604052801561085f5781602001602082028036833780820191505090505b50905060005b845181101561094e576108f88582815181106108aa577f4e487b7100000000000000000000000000000000000000000000000000000000600052603260045260246000fd5b60200260200101518583815181106108eb577f4e487b7100000000000000000000000000000000000000000000000000000000600052603260045260246000fd5b6020026020010151610440565b828281518110610931577f4e487b7100000000000000000000000000000000000000000000000000000000600052603260045260246000fd5b60200260200101818152505080610947906131cc565b9050610865565b508091505092915050565b61098a7f3c11d16cbaffd01df69ce1c404f6340ee057498f5f00246190ea54220576a848610985610cfb565b610ab2565b6109c9576040517f08c379a00000000000000000000000000000000000000000000000000000000081526004016109c090612d41565b60405180910390fd5b6109d48383836111cd565b505050565b610a037f9f2df0fed2c77648de5860a4cc508cd0818c85b8b8a1ab4ceeef8d981c8956a6826106fc565b610a2d7f3c11d16cbaffd01df69ce1c404f6340ee057498f5f00246190ea54220576a848826106fc565b50565b610a617f9f2df0fed2c77648de5860a4cc508cd0818c85b8b8a1ab4ceeef8d981c8956a6610a5c610cfb565b610ab2565b610aa0576040517f08c379a0000000000000000000000000000000000000000000000000000000008152600401610a9790612d21565b60405180910390fd5b610aac848484846114ca565b50505050565b60006003600084815260200190815260200160002060000160008373ffffffffffffffffffffffffffffffffffffffff1673ffffffffffffffffffffffffffffffffffffffff16815260200190815260200160002060009054906101000a900460ff16905092915050565b6000801b81565b6040517f08c379a0000000000000000000000000000000000000000000000000000000008152600401610b5690612da1565b60405180910390fd5b7f9f2df0fed2c77648de5860a4cc508cd0818c85b8b8a1ab4ceeef8d981c8956a681565b610b8c82610626565b610b9d81610b98610cfb565b610f6d565b610ba783836110eb565b505050565b6000600160008473ffffffffffffffffffffffffffffffffffffffff1673ffffffffffffffffffffffffffffffffffffffff16815260200190815260200160002060008373ffffffffffffffffffffffffffffffffffffffff1673ffffffffffffffffffffffffffffffffffffffff16815260200190815260200160002060009054906101000a900460ff16905092915050565b6040517f08c379a0000000000000000000000000000000000000000000000000000000008152600401610c7290612da1565b60405180910390fd5b610cac7f3c11d16cbaffd01df69ce1c404f6340ee057498f5f00246190ea54220576a848610ca7610cfb565b610ab2565b610ceb576040517f08c379a0000000000000000000000000000000000000000000000000000000008152600401610ce290612d41565b60405180910390fd5b610cf6838383611660565b505050565b600033905090565b600073ffffffffffffffffffffffffffffffffffffffff168473ffffffffffffffffffffffffffffffffffffffff161415610d73576040517f08c379a0000000000000000000000000000000000000000000000000000000008152600401610d6a90612e21565b60405180910390fd5b8151835114610db7576040517f08c379a0000000000000000000000000000000000000000000000000000000008152600401610dae90612e01565b60405180910390fd5b6000610dc1610cfb565b9050610dd28160008787878761187d565b60005b8451811015610ed757838181518110610e17577f4e487b7100000000000000000000000000000000000000000000000000000000600052603260045260246000fd5b6020026020010151600080878481518110610e5b577f4e487b7100000000000000000000000000000000000000000000000000000000600052603260045260246000fd5b6020026020010151815260200190815260200160002060008873ffffffffffffffffffffffffffffffffffffffff1673ffffffffffffffffffffffffffffffffffffffff1681526020019081526020016000206000828254610ebd9190612fcf565b925050819055508080610ecf906131cc565b915050610dd5565b508473ffffffffffffffffffffffffffffffffffffffff16600073ffffffffffffffffffffffffffffffffffffffff168273ffffffffffffffffffffffffffffffffffffffff167f4a39dc06d4c0dbc64b70af90fd698a233a518aa5d07e595d983b8c0526c8f7fb8787604051610f4f929190612c32565b60405180910390a4610f6681600087878787611885565b5050505050565b610f778282610ab2565b61100657610f9c8173ffffffffffffffffffffffffffffffffffffffff166014611a6c565b610faa8360001c6020611a6c565b604051602001610fbb929190612b14565b6040516020818303038152906040526040517f08c379a0000000000000000000000000000000000000000000000000000000008152600401610ffd9190612c9f565b60405180910390fd5b5050565b6110148282610ab2565b6110e75760016003600084815260200190815260200160002060000160008373ffffffffffffffffffffffffffffffffffffffff1673ffffffffffffffffffffffffffffffffffffffff16815260200190815260200160002060006101000a81548160ff02191690831515021790555061108c610cfb565b73ffffffffffffffffffffffffffffffffffffffff168173ffffffffffffffffffffffffffffffffffffffff16837f2f8788117e7eff1d82e926ec794901d17c78024a50270940304540a733656f0d60405160405180910390a45b5050565b6110f58282610ab2565b156111c95760006003600084815260200190815260200160002060000160008373ffffffffffffffffffffffffffffffffffffffff1673ffffffffffffffffffffffffffffffffffffffff16815260200190815260200160002060006101000a81548160ff02191690831515021790555061116e610cfb565b73ffffffffffffffffffffffffffffffffffffffff168173ffffffffffffffffffffffffffffffffffffffff16837ff6391f5c32d9c69d2a47ea670b442974b53935d1edc7fd64eb21e047a839171b60405160405180910390a45b5050565b600073ffffffffffffffffffffffffffffffffffffffff168373ffffffffffffffffffffffffffffffffffffffff16141561123d576040517f08c379a000000000000000000000000000000000000000000000000000000000815260040161123490612dc1565b60405180910390fd5b8051825114611281576040517f08c379a000000000000000000000000000000000000000000000000000000000815260040161127890612e01565b60405180910390fd5b600061128b610cfb565b90506112ab8185600086866040518060200160405280600081525061187d565b60005b83518110156114445760008482815181106112f2577f4e487b7100000000000000000000000000000000000000000000000000000000600052603260045260246000fd5b602002602001015190506000848381518110611337577f4e487b7100000000000000000000000000000000000000000000000000000000600052603260045260246000fd5b60200260200101519050600080600084815260200190815260200160002060008973ffffffffffffffffffffffffffffffffffffffff1673ffffffffffffffffffffffffffffffffffffffff168152602001908152602001600020549050818110156113d8576040517f08c379a00000000000000000000000000000000000000000000000000000000081526004016113cf90612d81565b60405180910390fd5b81810360008085815260200190815260200160002060008a73ffffffffffffffffffffffffffffffffffffffff1673ffffffffffffffffffffffffffffffffffffffff16815260200190815260200160002081905550505050808061143c906131cc565b9150506112ae565b50600073ffffffffffffffffffffffffffffffffffffffff168473ffffffffffffffffffffffffffffffffffffffff168273ffffffffffffffffffffffffffffffffffffffff167f4a39dc06d4c0dbc64b70af90fd698a233a518aa5d07e595d983b8c0526c8f7fb86866040516114bc929190612c32565b60405180910390a450505050565b600073ffffffffffffffffffffffffffffffffffffffff168473ffffffffffffffffffffffffffffffffffffffff16141561153a576040517f08c379a000000000000000000000000000000000000000000000000000000000815260040161153190612e21565b60405180910390fd5b6000611544610cfb565b90506115658160008761155688611d66565b61155f88611d66565b8761187d565b8260008086815260200190815260200160002060008773ffffffffffffffffffffffffffffffffffffffff1673ffffffffffffffffffffffffffffffffffffffff16815260200190815260200160002060008282546115c49190612fcf565b925050819055508473ffffffffffffffffffffffffffffffffffffffff16600073ffffffffffffffffffffffffffffffffffffffff168273ffffffffffffffffffffffffffffffffffffffff167fc3d58168c5ae7397731d063d5bbf3d657854427343f4c083240f7aacaa2d0f628787604051611642929190612e7c565b60405180910390a461165981600087878787611e2c565b5050505050565b600073ffffffffffffffffffffffffffffffffffffffff168373ffffffffffffffffffffffffffffffffffffffff1614156116d0576040517f08c379a00000000000000000000000000000000000000000000000000000000081526004016116c790612dc1565b60405180910390fd5b60006116da610cfb565b905061170a818560006116ec87611d66565b6116f587611d66565b6040518060200160405280600081525061187d565b600080600085815260200190815260200160002060008673ffffffffffffffffffffffffffffffffffffffff1673ffffffffffffffffffffffffffffffffffffffff168152602001908152602001600020549050828110156117a1576040517f08c379a000000000000000000000000000000000000000000000000000000000815260040161179890612d81565b60405180910390fd5b82810360008086815260200190815260200160002060008773ffffffffffffffffffffffffffffffffffffffff1673ffffffffffffffffffffffffffffffffffffffff16815260200190815260200160002081905550600073ffffffffffffffffffffffffffffffffffffffff168573ffffffffffffffffffffffffffffffffffffffff168373ffffffffffffffffffffffffffffffffffffffff167fc3d58168c5ae7397731d063d5bbf3d657854427343f4c083240f7aacaa2d0f62878760405161186e929190612e7c565b60405180910390a45050505050565b505050505050565b6118a48473ffffffffffffffffffffffffffffffffffffffff16612013565b15611a64578373ffffffffffffffffffffffffffffffffffffffff1663bc197c8187878686866040518663ffffffff1660e01b81526004016118ea959493929190612b4e565b602060405180830381600087803b15801561190457600080fd5b505af192505050801561193557506040513d601f19601f820116820180604052508101906119329190612751565b60015b6119db576119416132a2565b806308c379a0141561199e57506119566136eb565b8061196157506119a0565b806040517f08c379a00000000000000000000000000000000000000000000000000000000081526004016119959190612c9f565b60405180910390fd5b505b6040517f08c379a00000000000000000000000000000000000000000000000000000000081526004016119d290612cc1565b60405180910390fd5b63bc197c8160e01b7bffffffffffffffffffffffffffffffffffffffffffffffffffffffff1916817bffffffffffffffffffffffffffffffffffffffffffffffffffffffff191614611a62576040517f08c379a0000000000000000000000000000000000000000000000000000000008152600401611a5990612d01565b60405180910390fd5b505b505050505050565b606060006002836002611a7f9190613025565b611a899190612fcf565b67ffffffffffffffff811115611ac8577f4e487b7100000000000000000000000000000000000000000000000000000000600052604160045260246000fd5b6040519080825280601f01601f191660200182016040528015611afa5781602001600182028036833780820191505090505b5090507f300000000000000000000000000000000000000000000000000000000000000081600081518110611b58577f4e487b7100000000000000000000000000000000000000000000000000000000600052603260045260246000fd5b60200101907effffffffffffffffffffffffffffffffffffffffffffffffffffffffffffff1916908160001a9053507f780000000000000000000000000000000000000000000000000000000000000081600181518110611be2577f4e487b7100000000000000000000000000000000000000000000000000000000600052603260045260246000fd5b60200101907effffffffffffffffffffffffffffffffffffffffffffffffffffffffffffff1916908160001a90535060006001846002611c229190613025565b611c2c9190612fcf565b90505b6001811115611d18577f3031323334353637383961626364656600000000000000000000000000000000600f861660108110611c94577f4e487b7100000000000000000000000000000000000000000000000000000000600052603260045260246000fd5b1a60f81b828281518110611cd1577f4e487b7100000000000000000000000000000000000000000000000000000000600052603260045260246000fd5b60200101907effffffffffffffffffffffffffffffffffffffffffffffffffffffffffffff1916908160001a905350600485901c945080611d119061313f565b9050611c2f565b5060008414611d5c576040517f08c379a0000000000000000000000000000000000000000000000000000000008152600401611d5390612ce1565b60405180910390fd5b8091505092915050565b60606000600167ffffffffffffffff811115611dab577f4e487b7100000000000000000000000000000000000000000000000000000000600052604160045260246000fd5b604051908082528060200260200182016040528015611dd95781602001602082028036833780820191505090505b5090508281600081518110611e17577f4e487b7100000000000000000000000000000000000000000000000000000000600052603260045260246000fd5b60200260200101818152505080915050919050565b611e4b8473ffffffffffffffffffffffffffffffffffffffff16612013565b1561200b578373ffffffffffffffffffffffffffffffffffffffff1663f23a6e6187878686866040518663ffffffff1660e01b8152600401611e91959493929190612bb6565b602060405180830381600087803b158015611eab57600080fd5b505af1925050508015611edc57506040513d601f19601f82011682018060405250810190611ed99190612751565b60015b611f8257611ee86132a2565b806308c379a01415611f455750611efd6136eb565b80611f085750611f47565b806040517f08c379a0000000000000000000000000000000000000000000000000000000008152600401611f3c9190612c9f565b60405180910390fd5b505b6040517f08c379a0000000000000000000000000000000000000000000000000000000008152600401611f7990612cc1565b60405180910390fd5b63f23a6e6160e01b7bffffffffffffffffffffffffffffffffffffffffffffffffffffffff1916817bffffffffffffffffffffffffffffffffffffffffffffffffffffffff191614612009576040517f08c379a000000000000000000000000000000000000000000000000000000000815260040161200090612d01565b60405180910390fd5b505b505050505050565b600080823b905060008111915050919050565b600061203961203484612eca565b612ea5565b9050808382526020820190508285602086028201111561205857600080fd5b60005b85811015612088578161206e888261213c565b84526020840193506020830192505060018101905061205b565b5050509392505050565b60006120a56120a084612ef6565b612ea5565b905080838252602082019050828560208602820111156120c457600080fd5b60005b858110156120f457816120da8882612223565b8452602084019350602083019250506001810190506120c7565b5050509392505050565b600061211161210c84612f22565b612ea5565b90508281526020810184848401111561212957600080fd5b6121348482856130fd565b509392505050565b60008135905061214b81613781565b92915050565b600082601f83011261216257600080fd5b8135612172848260208601612026565b91505092915050565b600082601f83011261218c57600080fd5b813561219c848260208601612092565b91505092915050565b6000813590506121b481613798565b92915050565b6000813590506121c9816137af565b92915050565b6000813590506121de816137c6565b92915050565b6000815190506121f3816137c6565b92915050565b600082601f83011261220a57600080fd5b813561221a8482602086016120fe565b91505092915050565b600081359050612232816137dd565b92915050565b60006020828403121561224a57600080fd5b60006122588482850161213c565b91505092915050565b6000806040838503121561227457600080fd5b60006122828582860161213c565b92505060206122938582860161213c565b9150509250929050565b600080600080600060a086880312156122b557600080fd5b60006122c38882890161213c565b95505060206122d48882890161213c565b945050604086013567ffffffffffffffff8111156122f157600080fd5b6122fd8882890161217b565b935050606086013567ffffffffffffffff81111561231a57600080fd5b6123268882890161217b565b925050608086013567ffffffffffffffff81111561234357600080fd5b61234f888289016121f9565b9150509295509295909350565b600080600080600060a0868803121561237457600080fd5b60006123828882890161213c565b95505060206123938882890161213c565b94505060406123a488828901612223565b93505060606123b588828901612223565b925050608086013567ffffffffffffffff8111156123d257600080fd5b6123de888289016121f9565b9150509295509295909350565b60008060006060848603121561240057600080fd5b600061240e8682870161213c565b935050602084013567ffffffffffffffff81111561242b57600080fd5b6124378682870161217b565b925050604084013567ffffffffffffffff81111561245457600080fd5b6124608682870161217b565b9150509250925092565b6000806000806080858703121561248057600080fd5b600061248e8782880161213c565b945050602085013567ffffffffffffffff8111156124ab57600080fd5b6124b78782880161217b565b935050604085013567ffffffffffffffff8111156124d457600080fd5b6124e08782880161217b565b925050606085013567ffffffffffffffff8111156124fd57600080fd5b612509878288016121f9565b91505092959194509250565b6000806040838503121561252857600080fd5b60006125368582860161213c565b9250506020612547858286016121a5565b9150509250929050565b6000806040838503121561256457600080fd5b60006125728582860161213c565b925050602061258385828601612223565b9150509250929050565b6000806000606084860312156125a257600080fd5b60006125b08682870161213c565b93505060206125c186828701612223565b92505060406125d286828701612223565b9150509250925092565b600080600080608085870312156125f257600080fd5b60006126008782880161213c565b945050602061261187828801612223565b935050604061262287828801612223565b925050606085013567ffffffffffffffff81111561263f57600080fd5b61264b878288016121f9565b91505092959194509250565b6000806040838503121561266a57600080fd5b600083013567ffffffffffffffff81111561268457600080fd5b61269085828601612151565b925050602083013567ffffffffffffffff8111156126ad57600080fd5b6126b98582860161217b565b9150509250929050565b6000602082840312156126d557600080fd5b60006126e3848285016121ba565b91505092915050565b600080604083850312156126ff57600080fd5b600061270d858286016121ba565b925050602061271e8582860161213c565b9150509250929050565b60006020828403121561273a57600080fd5b6000612748848285016121cf565b91505092915050565b60006020828403121561276357600080fd5b6000612771848285016121e4565b91505092915050565b60006020828403121561278c57600080fd5b600061279a84828501612223565b91505092915050565b60006127af8383612af6565b60208301905092915050565b6127c48161307f565b82525050565b60006127d582612f63565b6127df8185612f91565b93506127ea83612f53565b8060005b8381101561281b57815161280288826127a3565b975061280d83612f84565b9250506001810190506127ee565b5085935050505092915050565b61283181613091565b82525050565b6128408161309d565b82525050565b600061285182612f6e565b61285b8185612fa2565b935061286b81856020860161310c565b612874816132c4565b840191505092915050565b600061288a82612f79565b6128948185612fb3565b93506128a481856020860161310c565b6128ad816132c4565b840191505092915050565b60006128c382612f79565b6128cd8185612fc4565b93506128dd81856020860161310c565b80840191505092915050565b60006128f6603483612fb3565b9150612901826132e2565b604082019050919050565b6000612919602083612fb3565b915061292482613331565b602082019050919050565b600061293c602883612fb3565b91506129478261335a565b604082019050919050565b600061295f602e83612fb3565b915061296a826133a9565b604082019050919050565b6000612982602e83612fb3565b915061298d826133f8565b604082019050919050565b60006129a5602b83612fb3565b91506129b082613447565b604082019050919050565b60006129c8602483612fb3565b91506129d382613496565b604082019050919050565b60006129eb600883612fb3565b91506129f6826134e5565b602082019050919050565b6000612a0e602383612fb3565b9150612a198261350e565b604082019050919050565b6000612a31601783612fc4565b9150612a3c8261355d565b601782019050919050565b6000612a54602983612fb3565b9150612a5f82613586565b604082019050919050565b6000612a77602883612fb3565b9150612a82826135d5565b604082019050919050565b6000612a9a602183612fb3565b9150612aa582613624565b604082019050919050565b6000612abd601183612fc4565b9150612ac882613673565b601182019050919050565b6000612ae0602f83612fb3565b9150612aeb8261369c565b604082019050919050565b612aff816130f3565b82525050565b612b0e816130f3565b82525050565b6000612b1f82612a24565b9150612b2b82856128b8565b9150612b3682612ab0565b9150612b4282846128b8565b91508190509392505050565b600060a082019050612b6360008301886127bb565b612b7060208301876127bb565b8181036040830152612b8281866127ca565b90508181036060830152612b9681856127ca565b90508181036080830152612baa8184612846565b90509695505050505050565b600060a082019050612bcb60008301886127bb565b612bd860208301876127bb565b612be56040830186612b05565b612bf26060830185612b05565b8181036080830152612c048184612846565b90509695505050505050565b60006020820190508181036000830152612c2a81846127ca565b905092915050565b60006040820190508181036000830152612c4c81856127ca565b90508181036020830152612c6081846127ca565b90509392505050565b6000602082019050612c7e6000830184612828565b92915050565b6000602082019050612c996000830184612837565b92915050565b60006020820190508181036000830152612cb9818461287f565b905092915050565b60006020820190508181036000830152612cda816128e9565b9050919050565b60006020820190508181036000830152612cfa8161290c565b9050919050565b60006020820190508181036000830152612d1a8161292f565b9050919050565b60006020820190508181036000830152612d3a81612952565b9050919050565b60006020820190508181036000830152612d5a81612975565b9050919050565b60006020820190508181036000830152612d7a81612998565b9050919050565b60006020820190508181036000830152612d9a816129bb565b9050919050565b60006020820190508181036000830152612dba816129de565b9050919050565b60006020820190508181036000830152612dda81612a01565b9050919050565b60006020820190508181036000830152612dfa81612a47565b9050919050565b60006020820190508181036000830152612e1a81612a6a565b9050919050565b60006020820190508181036000830152612e3a81612a8d565b9050919050565b60006020820190508181036000830152612e5a81612ad3565b9050919050565b6000602082019050612e766000830184612b05565b92915050565b6000604082019050612e916000830185612b05565b612e9e6020830184612b05565b9392505050565b6000612eaf612ec0565b9050612ebb828261319b565b919050565b6000604051905090565b600067ffffffffffffffff821115612ee557612ee4613273565b5b602082029050602081019050919050565b600067ffffffffffffffff821115612f1157612f10613273565b5b602082029050602081019050919050565b600067ffffffffffffffff821115612f3d57612f3c613273565b5b612f46826132c4565b9050602081019050919050565b6000819050602082019050919050565b600081519050919050565b600081519050919050565b600081519050919050565b6000602082019050919050565b600082825260208201905092915050565b600082825260208201905092915050565b600082825260208201905092915050565b600081905092915050565b6000612fda826130f3565b9150612fe5836130f3565b9250827fffffffffffffffffffffffffffffffffffffffffffffffffffffffffffffffff0382111561301a57613019613215565b5b828201905092915050565b6000613030826130f3565b915061303b836130f3565b9250817fffffffffffffffffffffffffffffffffffffffffffffffffffffffffffffffff048311821515161561307457613073613215565b5b828202905092915050565b600061308a826130d3565b9050919050565b60008115159050919050565b6000819050919050565b60007fffffffff0000000000000000000000000000000000000000000000000000000082169050919050565b600073ffffffffffffffffffffffffffffffffffffffff82169050919050565b6000819050919050565b82818337600083830152505050565b60005b8381101561312a57808201518184015260208101905061310f565b83811115613139576000848401525b50505050565b600061314a826130f3565b9150600082141561315e5761315d613215565b5b600182039050919050565b6000600282049050600182168061318157607f821691505b6020821081141561319557613194613244565b5b50919050565b6131a4826132c4565b810181811067ffffffffffffffff821117156131c3576131c2613273565b5b80604052505050565b60006131d7826130f3565b91507fffffffffffffffffffffffffffffffffffffffffffffffffffffffffffffffff82141561320a57613209613215565b5b600182019050919050565b7f4e487b7100000000000000000000000000000000000000000000000000000000600052601160045260246000fd5b7f4e487b7100000000000000000000000000000000000000000000000000000000600052602260045260246000fd5b7f4e487b7100000000000000000000000000000000000000000000000000000000600052604160045260246000fd5b600060033d11156132c15760046000803e6132be6000516132d5565b90505b90565b6000601f19601f8301169050919050565b60008160e01c9050919050565b7f455243313135353a207472616e7366657220746f206e6f6e204552433131353560008201527f526563656976657220696d706c656d656e746572000000000000000000000000602082015250565b7f537472696e67733a20686578206c656e67746820696e73756666696369656e74600082015250565b7f455243313135353a204552433131353552656365697665722072656a6563746560008201527f6420746f6b656e73000000000000000000000000000000000000000000000000602082015250565b7f5065726d697373696f6e4974656d733a206d7573742068617665206d696e746560008201527f7220726f6c6520746f206d696e74000000000000000000000000000000000000602082015250565b7f5065726d697373696f6e4974656d733a206d7573742068617665206275726e6560008201527f7220726f6c6520746f206275726e000000000000000000000000000000000000602082015250565b7f455243313135353a2062616c616e636520717565727920666f7220746865207a60008201527f65726f2061646472657373000000000000000000000000000000000000000000602082015250565b7f455243313135353a206275726e20616d6f756e7420657863656564732062616c60008201527f616e636500000000000000000000000000000000000000000000000000000000602082015250565b7f64697361626c6564000000000000000000000000000000000000000000000000600082015250565b7f455243313135353a206275726e2066726f6d20746865207a65726f206164647260008201527f6573730000000000000000000000000000000000000000000000000000000000602082015250565b7f416363657373436f6e74726f6c3a206163636f756e7420000000000000000000600082015250565b7f455243313135353a206163636f756e747320616e6420696473206c656e67746860008201527f206d69736d617463680000000000000000000000000000000000000000000000602082015250565b7f455243313135353a2069647320616e6420616d6f756e7473206c656e6774682060008201527f6d69736d61746368000000000000000000000000000000000000000000000000602082015250565b7f455243313135353a206d696e7420746f20746865207a65726f2061646472657360008201527f7300000000000000000000000000000000000000000000000000000000000000602082015250565b7f206973206d697373696e6720726f6c6520000000000000000000000000000000600082015250565b7f416363657373436f6e74726f6c3a2063616e206f6e6c792072656e6f756e636560008201527f20726f6c657320666f722073656c660000000000000000000000000000000000602082015250565b600060443d10156136fb5761377e565b613703612ec0565b60043d036004823e80513d602482011167ffffffffffffffff8211171561372b57505061377e565b808201805167ffffffffffffffff811115613749575050505061377e565b80602083010160043d03850181111561376657505050505061377e565b6137758260200185018661319b565b82955050505050505b90565b61378a8161307f565b811461379557600080fd5b50565b6137a181613091565b81146137ac57600080fd5b50565b6137b88161309d565b81146137c357600080fd5b50565b6137cf816130a7565b81146137da57600080fd5b50565b6137e6816130f3565b81146137f157600080fd5b5056fea2646970667358221220b8236ee939575d9a3102acfc91dff6a341957d96786431a5ef08e16f8004d8bc64736f6c63430008020033",
  "linkReferences": {},
  "deployedLinkReferences": {}
}